{"abi":[{"type":"constructor","inputs":[{"name":"_factory","type":"address","internalType":"address"},{"name":"_oracle","type":"address","internalType":"address"},{"name":"_hardBps","type":"uint16","internalType":"uint16"},{"name":"_hardBpsFixed","type":"uint16","internalType":"uint16"},{"name":"_staleSec","type":"uint32","internalType":"uint32"},{"name":"initialOwner","type":"address","internalType":"address"}],"stateMutability":"nonpayable"},{"type":"function","name":"acceptOwnership","inputs":[],"outputs":[],"stateMutability":"nonpayable"},{"type":"function","name":"checkPriceNow","inputs":[{"name":"base","type":"address","internalType":"address"},{"name":"quote","type":"address","internalType":"address"}],"outputs":[{"name":"dexMidE18","type":"uint256","internalType":"uint256"},{"name":"oraclePxE18","type":"uint256","internalType":"uint256"},{"name":"updatedAt","type":"uint256","internalType":"uint256"},{"name":"stale","type":"bool","internalType":"bool"},{"name":"limitBps","type":"uint16","internalType":"uint16"},{"name":"srcFixed","type":"bool","internalType":"bool"}],"stateMutability":"view"},{"type":"function","name":"checkSwapExactIn","inputs":[{"name":"path","type":"address[]","internalType":"address[]"},{"name":"amountIn","type":"uint256","internalType":"uint256"}],"outputs":[{"name":"ok","type":"bool","internalType":"bool"},{"name":"devBps","type":"uint256","internalType":"uint256"},{"name":"limitBps","type":"uint256","internalType":"uint256"},{"name":"stale","type":"bool","internalType":"bool"},{"name":"dexAfterE18","type":"uint256","internalType":"uint256"},{"name":"oracleE18","type":"uint256","internalType":"uint256"}],"stateMutability":"view"},{"type":"function","name":"checkSwapExactOut","inputs":[{"name":"path","type":"address[]","internalType":"address[]"},{"name":"amountOut","type":"uint256","internalType":"uint256"}],"outputs":[{"name":"ok","type":"bool","internalType":"bool"},{"name":"devBps","type":"uint256","internalType":"uint256"},{"name":"limitBps","type":"uint256","internalType":"uint256"},{"name":"stale","type":"bool","internalType":"bool"},{"name":"dexAfterE18","type":"uint256","internalType":"uint256"},{"name":"oracleE18","type":"uint256","internalType":"uint256"},{"name":"amountInNeeded","type":"uint256","internalType":"uint256"}],"stateMutability":"view"},{"type":"function","name":"defaults","inputs":[],"outputs":[{"name":"hardBps","type":"uint16","internalType":"uint16"},{"name":"hardBpsFixed","type":"uint16","internalType":"uint16"},{"name":"staleSec","type":"uint32","internalType":"uint32"}],"stateMutability":"view"},{"type":"function","name":"factory","inputs":[],"outputs":[{"name":"","type":"address","internalType":"contract IUniswapV2Factory"}],"stateMutability":"view"},{"type":"function","name":"oracle","inputs":[],"outputs":[{"name":"","type":"address","internalType":"contract IOracleRouter"}],"stateMutability":"view"},{"type":"function","name":"owner","inputs":[],"outputs":[{"name":"","type":"address","internalType":"address"}],"stateMutability":"view"},{"type":"function","name":"pairCfg","inputs":[{"name":"","type":"bytes32","internalType":"bytes32"}],"outputs":[{"name":"hardBps","type":"uint16","internalType":"uint16"},{"name":"staleSec","type":"uint32","internalType":"uint32"},{"name":"enabled","type":"uint8","internalType":"uint8"}],"stateMutability":"view"},{"type":"function","name":"pendingOwner","inputs":[],"outputs":[{"name":"","type":"address","internalType":"address"}],"stateMutability":"view"},{"type":"function","name":"renounceOwnership","inputs":[],"outputs":[],"stateMutability":"nonpayable"},{"type":"function","name":"setDefaults","inputs":[{"name":"_hardBps","type":"uint16","internalType":"uint16"},{"name":"_hardBpsFixed","type":"uint16","internalType":"uint16"},{"name":"_staleSec","type":"uint32","internalType":"uint32"}],"outputs":[],"stateMutability":"nonpayable"},{"type":"function","name":"setOracleRouter","inputs":[{"name":"_oracle","type":"address","internalType":"address"}],"outputs":[],"stateMutability":"nonpayable"},{"type":"function","name":"setPairCfg","inputs":[{"name":"tokenA","type":"address","internalType":"address"},{"name":"tokenB","type":"address","internalType":"address"},{"name":"cfg","type":"tuple","internalType":"struct GuardedRouter.PairCfg","components":[{"name":"hardBps","type":"uint16","internalType":"uint16"},{"name":"staleSec","type":"uint32","internalType":"uint32"},{"name":"enabled","type":"uint8","internalType":"uint8"}]}],"outputs":[],"stateMutability":"nonpayable"},{"type":"function","name":"transferOwnership","inputs":[{"name":"newOwner","type":"address","internalType":"address"}],"outputs":[],"stateMutability":"nonpayable"},{"type":"event","name":"DefaultsUpdated","inputs":[{"name":"hardBps","type":"uint16","indexed":false,"internalType":"uint16"},{"name":"hardBpsFixed","type":"uint16","indexed":false,"internalType":"uint16"},{"name":"staleSec","type":"uint32","indexed":false,"internalType":"uint32"}],"anonymous":false},{"type":"event","name":"OracleUpdated","inputs":[{"name":"newOracle","type":"address","indexed":true,"internalType":"address"}],"anonymous":false},{"type":"event","name":"OwnershipTransferStarted","inputs":[{"name":"previousOwner","type":"address","indexed":true,"internalType":"address"},{"name":"newOwner","type":"address","indexed":true,"internalType":"address"}],"anonymous":false},{"type":"event","name":"OwnershipTransferred","inputs":[{"name":"previousOwner","type":"address","indexed":true,"internalType":"address"},{"name":"newOwner","type":"address","indexed":true,"internalType":"address"}],"anonymous":false},{"type":"event","name":"PairCfgUpdated","inputs":[{"name":"tokenA","type":"address","indexed":true,"internalType":"address"},{"name":"tokenB","type":"address","indexed":true,"internalType":"address"},{"name":"cfg","type":"tuple","indexed":false,"internalType":"struct GuardedRouter.PairCfg","components":[{"name":"hardBps","type":"uint16","internalType":"uint16"},{"name":"staleSec","type":"uint32","internalType":"uint32"},{"name":"enabled","type":"uint8","internalType":"uint8"}]}],"anonymous":false},{"type":"error","name":"OwnableInvalidOwner","inputs":[{"name":"owner","type":"address","internalType":"address"}]},{"type":"error","name":"OwnableUnauthorizedAccount","inputs":[{"name":"account","type":"address","internalType":"address"}]},{"type":"error","name":"PathArgs","inputs":[]},{"type":"error","name":"PathLength","inputs":[]},{"type":"error","name":"ZeroAddress","inputs":[]}],"bytecode":{"object":"0x60a0604052346101fb57604051601f61186a38819003918201601f19168301916001600160401b038311848410176101b45780849260c0946040528339810103126101fb5761004d816101ff565b9061005a602082016101ff565b9061006760408201610213565b9061007460608201610213565b9260808201519463ffffffff8616928387036101fb576001600160a01b039061009f9060a0016101ff565b1680156101e857600180546001600160a01b03199081169091555f8054918216831781556001600160a01b03909116907f8be0079c531659141344cd1fd0a4f28419497f9722a3daafe3b4186f6b6457e09080a36001600160a01b0316801580156101d7575b6101c857608052600380546001600160a01b0319166001600160a01b039290921691909117905560405160608101929091906001600160401b038411838510176101b45761ffff60409163ffff0000958352169283815261ffff86166020820152015267ffffffff000000006002549460201b169360018060401b031916179160101b161717600255604051611647908161022382396080518181816101c201528181610f4101526113450152f35b634e487b7160e01b5f52604160045260245ffd5b63d92e233d60e01b5f5260045ffd5b506001600160a01b03821615610105565b631e4fbdf760e01b5f525f60045260245ffd5b5f80fd5b51906001600160a01b03821682036101fb57565b519061ffff821682036101fb5756fe60806040526004361015610011575f80fd5b5f3560e01c80631a6e7b161461071c5780634d69ee0e1461067f57806359d96362146106355780636f99fb3c146105f3578063715018a61461057257806379ba5097146104b85780637d2d934c1461046f5780637dc0d1d0146104495780638da5cb5b146104245780638eeb24c7146102ef578063af50fce6146101e6578063c45a0155146101a3578063e30c39781461017d578063edb7a6fa1461013c5763f2fde38b146100be575f80fd5b34610138576020600319360112610138576001600160a01b036100df610777565b6100e761110e565b168073ffffffffffffffffffffffffffffffffffffffff1960015416176001556001600160a01b035f54167f38d16b8cac22d99fc7c124b9cd0de2d3fa1faef420bfe791d8c362d765e227005f80a3005b5f80fd5b34610138575f600319360112610138576002546040805161ffff8084168252601084901c166020808301919091529290921c63ffffffff1690820152606090f35b34610138575f6003193601126101385760206001600160a01b0360015416604051908152f35b34610138575f6003193601126101385760206040516001600160a01b037f0000000000000000000000000000000000000000000000000000000000000000168152f35b346101385760606003193601126101385760043561ffff811690818103610138576024359061ffff82168083036101385760443563ffffffff811694858203610138577f88636ceff80cbbf1bab67d4992003faed8a2c6c266b2d85bc885676c3750b7659560406102ea9461025961110e565b81519061026582610dcc565b8482526020820152015261ffff19600254161760025560025467ffffffff000000008260201b16907fffffffffffffffffffffffffffffffffffffffffffffffff000000000000ffff63ffff00008760101b16911617176002556040519384938491604091949361ffff63ffffffff9281606087019816865216602085015216910152565b0390a1005b346101385760a060031936011261013857610308610777565b61031061078d565b60607fffffffffffffffffffffffffffffffffffffffffffffffffffffffffffffffbc3601126101385761034b9161034661110e565b611506565b90915f52600460205260405f20906044359161ffff831691828403610138578261ffff198354161782556064359063ffffffff821690818303610138578354926084359260ff841691828503610138577fa0c9437cc331b615e03af57c9421bcd0739d0d3e0d5127dae91f1907a005f07e976060976001600160a01b039766ff000000000000899860301b16907fffffffffffffffffffffffffffffffffffffffffffffffffff0000000000ffff65ffffffff00008660101b1691161717905560405199508952506020880152604087015216941692a3005b34610138575f6003193601126101385760206001600160a01b035f5416604051908152f35b34610138575f6003193601126101385760206001600160a01b0360035416604051908152f35b34610138576020600319360112610138576004355f526004602052606060405f205460ff6040519161ffff8116835263ffffffff8160101c16602084015260301c166040820152f35b34610138575f60031936011261013857336001600160a01b0360015416036105465773ffffffffffffffffffffffffffffffffffffffff19600154166001555f543373ffffffffffffffffffffffffffffffffffffffff198216175f556001600160a01b033391167f8be0079c531659141344cd1fd0a4f28419497f9722a3daafe3b4186f6b6457e05f80a3005b7f118cdaa7000000000000000000000000000000000000000000000000000000005f523360045260245ffd5b34610138575f6003193601126101385761058a61110e565b73ffffffffffffffffffffffffffffffffffffffff19600154166001555f6001600160a01b03815473ffffffffffffffffffffffffffffffffffffffff1981168355167f8be0079c531659141344cd1fd0a4f28419497f9722a3daafe3b4186f6b6457e08280a3005b346101385760c061060c610606366107a3565b91610c3c565b9360409391935195151586526020860152604085015215156060840152608083015260a0820152f35b346101385760e061064e610648366107a3565b91610a3e565b9460409491949392935196151587526020870152604086015215156060850152608084015260a083015260c0820152f35b34610138576020600319360112610138576001600160a01b036106a0610777565b6106a861110e565b1680156106f4578073ffffffffffffffffffffffffffffffffffffffff1960035416176003557f3df77beb5db05fcdd70a30fc8adf3f83f9501b68579455adbd100b81809403945f80a2005b7fd92e233d000000000000000000000000000000000000000000000000000000005f5260045ffd5b346101385760406003193601126101385760c061ffff61074b61073d610777565b61074561078d565b90610840565b9495936040939193519687526020870152604086015215156060850152166080830152151560a0820152f35b600435906001600160a01b038216820361013857565b602435906001600160a01b038216820361013857565b9060406003198301126101385760043567ffffffffffffffff811161013857826023820112156101385780600401359267ffffffffffffffff84116101385760248460051b8301011161013857602401919060243590565b8181029291811591840414171561080e57565b634e487b7160e01b5f52601160045260245ffd5b811561082c570490565b634e487b7160e01b5f52601260045260245ffd5b91909161084d8382610ead565b6001600160a01b038151161580156109f4575b6109e2576dffffffffffffffffffffffffffff606082015116670de0b6b3a7640000810290808204670de0b6b3a7640000149015171561080e576dffffffffffffffffffffffffffff60406108b89301511690610822565b6003546040517fd4c282a30000000000000000000000000000000000000000000000000000000081526001600160a01b0384811660048301528681166024830152929592909160609183916044918391165afa9182156109d7575f935f925f9461099a575b50906109289161157b565b909260028110156109865760010361096a57506001915f9061ffff60025460101c168061ffff831610155f1461096357505b925b9092919394565b905061095a565b915f9263ffffffff61097c8442610a24565b911610909261095c565b634e487b7160e01b5f52602160045260245ffd5b9093506109c5919450610928925060603d6060116109d0575b6109bd8183610dfc565b8101906110ea565b91949193909261091d565b503d6109b3565b6040513d5f823e3d90fd5b505f9250829182915060019082908190565b506dffffffffffffffffffffffffffff60408201511615610860565b356001600160a01b03811681036101385790565b9190820391821161080e57565b9190820180921161080e57565b9091610a4a8383611121565b8215610c2857610a5982610a10565b9260011015610c2857610a796020830193610a7385610a10565b90611206565b9092919361ffff829416948092610c1457506001600160a01b0395610aa9610aa3610aaf93610a10565b91610a10565b906112f1565b96909116158015610bfc575b8015610be2575b610bd2576dffffffffffffffffffffffffffff16610ae083826107fb565b956103e88702968088046103e8149015171561080e576dffffffffffffffffffffffffffff1695610b118488610a24565b906103e58202918083046103e5149015171561080e5781610b3191610a31565b5f1981019190821161080e57610b4b8591610b5193610822565b97610a24565b670de0b6b3a7640000810290808204670de0b6b3a7640000149015171561080e57610b7f87610b8593610a31565b90610822565b9185610b9e5750610b96815f6114b0565b948486111596565b670de0b6b3a7640000810290808204670de0b6b3a7640000149015171561080e5781610bcd87610b9693610822565b6114b0565b505f958695508593508392508290565b506dffffffffffffffffffffffffffff8616831015610ac2565b506dffffffffffffffffffffffffffff811615610abb565b5f9788975060019550879450909250839150565b634e487b7160e01b5f52603260045260245ffd5b610c468282611121565b8115610c2857610c5581610a10565b9160011015610c2857610c6f6020820192610a7384610a10565b949193909261ffff869416948096610db957506001600160a01b0391610aa9610aa3610c9a93610a10565b939192909216158015610da1575b610d92576103e581028115938282046103e51485171561080e576dffffffffffffffffffffffffffff16926dffffffffffffffffffffffffffff610cec85846107fb565b9116916103e88302918383046103e8148415171561080e57610b7f610d1492610d1b94610a31565b8094610a24565b670de0b6b3a7640000810290808204670de0b6b3a7640000149015171561080e57610b7f83610d4993610a31565b9215610d63575050610d5b845f6114b0565b938385111595565b670de0b6b3a7640000820291808304670de0b6b3a7640000149015171561080e57610bcd8691610d5b93610822565b505f9586958694508493509150565b506dffffffffffffffffffffffffffff821615610ca8565b5f97889750600195508794509092509050565b6060810190811067ffffffffffffffff821117610de857604052565b634e487b7160e01b5f52604160045260245ffd5b90601f7fffffffffffffffffffffffffffffffffffffffffffffffffffffffffffffffe0910116810190811067ffffffffffffffff821117610de857604052565b9081602091031261013857516001600160a01b03811681036101385790565b51906dffffffffffffffffffffffffffff8216820361013857565b9081606091031261013857610e8b81610e5c565b916040610e9a60208401610e5c565b92015163ffffffff811681036101385790565b9190916040516080810181811067ffffffffffffffff821117610de8576040525f81525f60208201525f60408201525f6060820152610f3560208295604051809381927fe6a4390500000000000000000000000000000000000000000000000000000000835287600484019092916001600160a01b0360209181604085019616845216910152565b03816001600160a01b037f0000000000000000000000000000000000000000000000000000000000000000165afa80156109d7576001600160a01b03915f916110cb575b50169081156110c557506040517f0902f1ac000000000000000000000000000000000000000000000000000000008152606081600481855afa9182156109d7575f915f93611091575b50604051937f0dfe1681000000000000000000000000000000000000000000000000000000008552602085600481855afa9182156109d7576dffffffffffffffffffffffffffff955f93611052575b5087526001600160a01b0391821691160361103c576001602086015282166040850152166060830152565b5f60208601529082166040850152166060830152565b6001600160a01b039290839294506110819060203d60201161108a575b6110798183610dfc565b810190610e3d565b93915091611011565b503d61106f565b9092506110b6915060603d6060116110be575b6110ae8183610dfc565b810190610e77565b50915f610fc2565b503d6110a4565b93505050565b6110e4915060203d60201161108a576110798183610dfc565b5f610f79565b90816060910312610138578051916040602083015192015160028110156101385790565b6001600160a01b035f5416330361054657565b90600281036111de578015610c28576001600160a01b0361114183610a10565b16159182156111b7575b8215611182575b505061115a57565b7fe49303cd000000000000000000000000000000000000000000000000000000005f5260045ffd5b90915061118e81610a10565b9160011015610c28576001600160a01b036111ac6020829301610a10565b169116145f80611152565b91508060011015610c28576001600160a01b036111d660208401610a10565b16159161114b565b7f6311bc0f000000000000000000000000000000000000000000000000000000005f5260045ffd5b6003546040517fd4c282a30000000000000000000000000000000000000000000000000000000081526001600160a01b038381166004830152848116602483015292949392909160609183916044918391165afa9182156109d7575f5f925f946112c5575b5090611277919561157b565b9190926002811015610986576001036112af5750505f9061ffff60025460101c168061ffff831610155f146112aa575091565b905091565b6112be63ffffffff9142610a24565b9116109091565b90506112e6919350611277925060603d6060116109d0576109bd8183610dfc565b93909290919061126b565b6040517fe6a439050000000000000000000000000000000000000000000000000000000081526001600160a01b03808316600483015290921660248301529091602083806044810103816001600160a01b037f0000000000000000000000000000000000000000000000000000000000000000165afa9283156109d7575f9361148f575b506001600160a01b03831615611485576040517f0902f1ac0000000000000000000000000000000000000000000000000000000081526001600160a01b03841692606082600481875afa9384156109d7575f925f95611456575b50906020600492604051938480927f0dfe16810000000000000000000000000000000000000000000000000000000082525afa9182156109d7575f9261142a575b506001600160a01b03918216911603611427579190565b90565b6001600160a01b0391925061144e829160203d60201161108a576110798183610dfc565b929150611410565b600492919550602093506114789060603d6060116110be576110ae8183610dfc565b50939093959192506113cf565b5f92508291508190565b6114a991935060203d60201161108a576110798183610dfc565b915f611375565b801580156114fe575b6114f757818082116114ee57906114cf91610a24565b90612710820291808304612710149015171561080e5761142791610822565b6114cf91610a24565b50505f1990565b5081156114b9565b6001600160a01b0382166001600160a01b038216105f14611575575b819080927fffffffffffffffffffffffffffffffffffffffff0000000000000000000000006040519181602084019460601b16845260601b1660348201526028815261156f604882610dfc565b51902092565b90611522565b9061158591611506565b50505f52600460205260405f2090604051916115a083610dcc565b5491604061ffff84169182815260ff63ffffffff8660101c169586602084015260301c16918291015215155f146115fa57806115f5575061ffff600254165b9180611427575063ffffffff60025460201c1690565b6115df565b5060025461ffff8116925060201c63ffffffff169056fea2646970667358221220fbfc7b93272f3ec469ba293ecbf5cf746e015221abebf991d77bd9702f3aa3c564736f6c634300081e0033","linkReferences":{}},"methodIdentifiers":{"acceptOwnership()":"79ba5097","checkPriceNow(address,address)":"1a6e7b16","checkSwapExactIn(address[],uint256)":"6f99fb3c","checkSwapExactOut(address[],uint256)":"59d96362","defaults()":"edb7a6fa","factory()":"c45a0155","oracle()":"7dc0d1d0","owner()":"8da5cb5b","pairCfg(bytes32)":"7d2d934c","pendingOwner()":"e30c3978","renounceOwnership()":"715018a6","setDefaults(uint16,uint16,uint32)":"af50fce6","setOracleRouter(address)":"4d69ee0e","setPairCfg(address,address,(uint16,uint32,uint8))":"8eeb24c7","transferOwnership(address)":"f2fde38b"},"id":30}