{"abi":[{"type":"constructor","inputs":[],"stateMutability":"nonpayable"},{"type":"function","name":"DEFAULT_ADMIN_ROLE","inputs":[],"outputs":[{"name":"","type":"bytes32","internalType":"bytes32"}],"stateMutability":"view"},{"type":"function","name":"FUNDER_ROLE","inputs":[],"outputs":[{"name":"","type":"bytes32","internalType":"bytes32"}],"stateMutability":"view"},{"type":"function","name":"TREASURER_ROLE","inputs":[],"outputs":[{"name":"","type":"bytes32","internalType":"bytes32"}],"stateMutability":"view"},{"type":"function","name":"acceptOwnership","inputs":[],"outputs":[],"stateMutability":"nonpayable"},{"type":"function","name":"blacklistEnabled","inputs":[],"outputs":[{"name":"","type":"bool","internalType":"bool"}],"stateMutability":"view"},{"type":"function","name":"buyDailyPass","inputs":[],"outputs":[],"stateMutability":"payable"},{"type":"function","name":"claim","inputs":[{"name":"token","type":"address","internalType":"address"},{"name":"to","type":"address","internalType":"address"}],"outputs":[],"stateMutability":"nonpayable"},{"type":"function","name":"cooldownSec","inputs":[],"outputs":[{"name":"","type":"uint256","internalType":"uint256"}],"stateMutability":"view"},{"type":"function","name":"fundVault","inputs":[{"name":"token","type":"address","internalType":"address"},{"name":"amount","type":"uint256","internalType":"uint256"}],"outputs":[],"stateMutability":"nonpayable"},{"type":"function","name":"getRoleAdmin","inputs":[{"name":"role","type":"bytes32","internalType":"bytes32"}],"outputs":[{"name":"","type":"bytes32","internalType":"bytes32"}],"stateMutability":"view"},{"type":"function","name":"grantRole","inputs":[{"name":"role","type":"bytes32","internalType":"bytes32"},{"name":"account","type":"address","internalType":"address"}],"outputs":[],"stateMutability":"nonpayable"},{"type":"function","name":"hasActivePass","inputs":[{"name":"account","type":"address","internalType":"address"}],"outputs":[{"name":"","type":"bool","internalType":"bool"}],"stateMutability":"view"},{"type":"function","name":"hasRole","inputs":[{"name":"role","type":"bytes32","internalType":"bytes32"},{"name":"account","type":"address","internalType":"address"}],"outputs":[{"name":"","type":"bool","internalType":"bool"}],"stateMutability":"view"},{"type":"function","name":"isBlacklisted","inputs":[{"name":"account","type":"address","internalType":"address"}],"outputs":[{"name":"","type":"bool","internalType":"bool"}],"stateMutability":"view"},{"type":"function","name":"nextAvailableAt","inputs":[{"name":"token","type":"address","internalType":"address"},{"name":"user","type":"address","internalType":"address"}],"outputs":[{"name":"","type":"uint256","internalType":"uint256"}],"stateMutability":"view"},{"type":"function","name":"owner","inputs":[],"outputs":[{"name":"","type":"address","internalType":"address"}],"stateMutability":"view"},{"type":"function","name":"paidPassEnabled","inputs":[],"outputs":[{"name":"","type":"bool","internalType":"bool"}],"stateMutability":"view"},{"type":"function","name":"passPriceEth","inputs":[],"outputs":[{"name":"","type":"uint256","internalType":"uint256"}],"stateMutability":"view"},{"type":"function","name":"pause","inputs":[],"outputs":[],"stateMutability":"nonpayable"},{"type":"function","name":"paused","inputs":[],"outputs":[{"name":"","type":"bool","internalType":"bool"}],"stateMutability":"view"},{"type":"function","name":"pendingOwner","inputs":[],"outputs":[{"name":"","type":"address","internalType":"address"}],"stateMutability":"view"},{"type":"function","name":"perClaim","inputs":[{"name":"token","type":"address","internalType":"address"}],"outputs":[{"name":"","type":"uint256","internalType":"uint256"}],"stateMutability":"view"},{"type":"function","name":"renounceOwnership","inputs":[],"outputs":[],"stateMutability":"nonpayable"},{"type":"function","name":"renounceRole","inputs":[{"name":"role","type":"bytes32","internalType":"bytes32"},{"name":"callerConfirmation","type":"address","internalType":"address"}],"outputs":[],"stateMutability":"nonpayable"},{"type":"function","name":"revokeRole","inputs":[{"name":"role","type":"bytes32","internalType":"bytes32"},{"name":"account","type":"address","internalType":"address"}],"outputs":[],"stateMutability":"nonpayable"},{"type":"function","name":"setBlacklistEnabled","inputs":[{"name":"enabled","type":"bool","internalType":"bool"}],"outputs":[],"stateMutability":"nonpayable"},{"type":"function","name":"setBlacklisted","inputs":[{"name":"account","type":"address","internalType":"address"},{"name":"blacklisted_","type":"bool","internalType":"bool"}],"outputs":[],"stateMutability":"nonpayable"},{"type":"function","name":"setCooldown","inputs":[{"name":"newCooldown","type":"uint256","internalType":"uint256"}],"outputs":[],"stateMutability":"nonpayable"},{"type":"function","name":"setDailyCap","inputs":[{"name":"token","type":"address","internalType":"address"},{"name":"cap","type":"uint256","internalType":"uint256"}],"outputs":[],"stateMutability":"nonpayable"},{"type":"function","name":"setPaidPass","inputs":[{"name":"enabled","type":"bool","internalType":"bool"},{"name":"priceWei","type":"uint256","internalType":"uint256"}],"outputs":[],"stateMutability":"nonpayable"},{"type":"function","name":"setPassPriceEth","inputs":[{"name":"newPrice","type":"uint256","internalType":"uint256"}],"outputs":[],"stateMutability":"nonpayable"},{"type":"function","name":"setPerClaim","inputs":[{"name":"token","type":"address","internalType":"address"},{"name":"amount","type":"uint256","internalType":"uint256"}],"outputs":[],"stateMutability":"nonpayable"},{"type":"function","name":"setTreasury","inputs":[{"name":"newTreasury","type":"address","internalType":"address"}],"outputs":[],"stateMutability":"nonpayable"},{"type":"function","name":"supportsInterface","inputs":[{"name":"interfaceId","type":"bytes4","internalType":"bytes4"}],"outputs":[{"name":"","type":"bool","internalType":"bool"}],"stateMutability":"view"},{"type":"function","name":"sweepEth","inputs":[{"name":"amount","type":"uint256","internalType":"uint256"}],"outputs":[],"stateMutability":"nonpayable"},{"type":"function","name":"sweepToken","inputs":[{"name":"token","type":"address","internalType":"address"},{"name":"amount","type":"uint256","internalType":"uint256"}],"outputs":[],"stateMutability":"nonpayable"},{"type":"function","name":"systemRemainingToday","inputs":[{"name":"token","type":"address","internalType":"address"}],"outputs":[{"name":"","type":"uint256","internalType":"uint256"}],"stateMutability":"view"},{"type":"function","name":"transferOwnership","inputs":[{"name":"newOwner","type":"address","internalType":"address"}],"outputs":[],"stateMutability":"nonpayable"},{"type":"function","name":"treasury","inputs":[],"outputs":[{"name":"","type":"address","internalType":"address"}],"stateMutability":"view"},{"type":"function","name":"unpause","inputs":[],"outputs":[],"stateMutability":"nonpayable"},{"type":"event","name":"BlacklistUpdated","inputs":[{"name":"account","type":"address","indexed":true,"internalType":"address"},{"name":"blacklisted","type":"bool","indexed":false,"internalType":"bool"}],"anonymous":false},{"type":"event","name":"Claimed","inputs":[{"name":"token","type":"address","indexed":true,"internalType":"address"},{"name":"user","type":"address","indexed":true,"internalType":"address"},{"name":"amount","type":"uint256","indexed":false,"internalType":"uint256"},{"name":"to","type":"address","indexed":true,"internalType":"address"}],"anonymous":false},{"type":"event","name":"FundsSwept","inputs":[{"name":"asset","type":"address","indexed":true,"internalType":"address"},{"name":"to","type":"address","indexed":true,"internalType":"address"},{"name":"amount","type":"uint256","indexed":false,"internalType":"uint256"}],"anonymous":false},{"type":"event","name":"OwnershipTransferStarted","inputs":[{"name":"previousOwner","type":"address","indexed":true,"internalType":"address"},{"name":"newOwner","type":"address","indexed":true,"internalType":"address"}],"anonymous":false},{"type":"event","name":"OwnershipTransferred","inputs":[{"name":"previousOwner","type":"address","indexed":true,"internalType":"address"},{"name":"newOwner","type":"address","indexed":true,"internalType":"address"}],"anonymous":false},{"type":"event","name":"ParamUpdated","inputs":[{"name":"key","type":"bytes32","indexed":true,"internalType":"bytes32"},{"name":"token","type":"address","indexed":true,"internalType":"address"},{"name":"value","type":"uint256","indexed":false,"internalType":"uint256"}],"anonymous":false},{"type":"event","name":"PassPurchased","inputs":[{"name":"buyer","type":"address","indexed":true,"internalType":"address"},{"name":"amountPaid","type":"uint256","indexed":false,"internalType":"uint256"},{"name":"dayIndex","type":"uint256","indexed":false,"internalType":"uint256"}],"anonymous":false},{"type":"event","name":"Paused","inputs":[{"name":"account","type":"address","indexed":false,"internalType":"address"}],"anonymous":false},{"type":"event","name":"RoleAdminChanged","inputs":[{"name":"role","type":"bytes32","indexed":true,"internalType":"bytes32"},{"name":"previousAdminRole","type":"bytes32","indexed":true,"internalType":"bytes32"},{"name":"newAdminRole","type":"bytes32","indexed":true,"internalType":"bytes32"}],"anonymous":false},{"type":"event","name":"RoleGranted","inputs":[{"name":"role","type":"bytes32","indexed":true,"internalType":"bytes32"},{"name":"account","type":"address","indexed":true,"internalType":"address"},{"name":"sender","type":"address","indexed":true,"internalType":"address"}],"anonymous":false},{"type":"event","name":"RoleRevoked","inputs":[{"name":"role","type":"bytes32","indexed":true,"internalType":"bytes32"},{"name":"account","type":"address","indexed":true,"internalType":"address"},{"name":"sender","type":"address","indexed":true,"internalType":"address"}],"anonymous":false},{"type":"event","name":"Unpaused","inputs":[{"name":"account","type":"address","indexed":false,"internalType":"address"}],"anonymous":false},{"type":"event","name":"VaultFunded","inputs":[{"name":"token","type":"address","indexed":true,"internalType":"address"},{"name":"funder","type":"address","indexed":true,"internalType":"address"},{"name":"amount","type":"uint256","indexed":false,"internalType":"uint256"}],"anonymous":false},{"type":"error","name":"AccessControlBadConfirmation","inputs":[]},{"type":"error","name":"AccessControlUnauthorizedAccount","inputs":[{"name":"account","type":"address","internalType":"address"},{"name":"neededRole","type":"bytes32","internalType":"bytes32"}]},{"type":"error","name":"EnforcedPause","inputs":[]},{"type":"error","name":"ExpectedPause","inputs":[]},{"type":"error","name":"OwnableInvalidOwner","inputs":[{"name":"owner","type":"address","internalType":"address"}]},{"type":"error","name":"OwnableUnauthorizedAccount","inputs":[{"name":"account","type":"address","internalType":"address"}]},{"type":"error","name":"ReentrancyGuardReentrantCall","inputs":[]},{"type":"error","name":"SafeERC20FailedOperation","inputs":[{"name":"token","type":"address","internalType":"address"}]}],"bytecode":{"object":"0x60808060405234620000c6573315620000b15760018060a01b031980600154166001555f5433828216175f55339060018060a01b03167f8be0079c531659141344cd1fd0a4f28419497f9722a3daafe3b4186f6b6457e05f80a3600160035560048054610100600160481b0319166101001790556200007e33620000ca565b506200008a336200013a565b506200009633620001db565b503390600c541617600c556040516122bd9081620002778239f35b631e4fbdf760e01b81525f6004820152602490fd5b5f80fd5b6001600160a01b03165f8181525f8051602062002554833981519152602052604090205460ff1662000135575f8181525f805160206200255483398151915260205260408120805460ff191660011790553391905f80516020620025348339815191528180a4600190565b505f90565b6001600160a01b03165f8181527fbb158ee2d6e63e8ad1cbf83826571f7b7e372d0659c759aea738d2e47548ac2660205260409020547f0914bb97ca83e85ef385857d9d418f187ff630589e0c9f44db92976d8e4519cb919060ff16620001d557815f52600260205260405f20815f5260205260405f20600160ff1982541617905533915f80516020620025348339815191525f80a4600190565b50505f90565b6001600160a01b03165f8181527fc0a3be63cc7de3909d43a0d8fc5a3c6357ea79202489f4985e753b0fa052d7c360205260409020547f3496e2e73c4d42b75d702e60d9e48102720b8691234415963a5a857b86425d07919060ff16620001d557815f52600260205260405f20815f5260205260405f20600160ff1982541617905533915f80516020620025348339815191525f80a460019056fe6080604090808252600480361015610015575f80fd5b5f3560e01c91826301ffc9a714611c5d575081631201cbd014611bcd57816321c0b34214611747578163248a9ca31461171d5781632b6d7a66146116ef5781632f2ff15d146116c7578163328e69ff146116a957816334aedecd1461166f57816336568abe1461161257816338e95769146114ac5781633f4ba83a1461142e5781634ee0fbb11461140b5781634fc3f41a146112ef5781635c975abb146112ce57816361d027b3146112a7578163715018a61461123a57816375062d13146110f157816379ba5097146110495781638386ac9e146110005781638456cb5914610fa75781638731c2f214610f825781638999c44414610f4e5781638da5cb5b14610f2857816391d1485414610ee3578163a217fddf14610ec9578163a5e0759a14610d3f578163bc9214e914610c3f578163bffb691d14610c1c578163c4ce9f4814610b5c578163d01dd6d214610a7d578163d547741f14610a41578163da09a331146108bb578163e30c397814610894578163e389eba01461064a578163e7cb9f2d146105f7578163e90a182f146103a6578163f0a3a97c1461036c578163f0f442601461028c57508063f2fde38b146102175763fe575a87146101d8575f80fd5b34610213576020600319360112610213576020906001600160a01b036101fc611d09565b165f52600b825260ff815f20541690519015158152f35b5f80fd5b3461021357602060031936011261021357610230611d09565b610238611f4c565b6001600160a01b03809116908173ffffffffffffffffffffffffffffffffffffffff1960015416176001555f54167f38d16b8cac22d99fc7c124b9cd0de2d3fa1faef420bfe791d8c362d765e227005f80a3005b8234610213576020600319360112610213576001600160a01b036102ae611d09565b6102b6611f4c565b1691821561032a57507f82af1bdfcd7429ff4452aa0ad3e30635d41a1dfe7a1125666e13d55ce596a5ef60207f5452454153555259000000000000000000000000000000000000000000000000928473ffffffffffffffffffffffffffffffffffffffff19600c541617600c55515f8152a3005b6020606492519162461bcd60e51b8352820152600d60248201527f54524541535552595f5a45524f000000000000000000000000000000000000006044820152fd5b8234610213575f60031936011261021357602090517f3496e2e73c4d42b75d702e60d9e48102720b8691234415963a5a857b86425d078152f35b9050346102135781600319360112610213576103c0611d09565b906024356103cc611f8f565b6103d4612068565b6001600160a01b038093169283156105b457600c541693841561056457835f52602092600584526fffffffffffffffffffffffffffffffff825f2054166105235781517f70a0823100000000000000000000000000000000000000000000000000000000815230828201528481602481895afa908115610519575f916104ec575b5083159081156104e2575b506104a15750907f5a19430830fcfde0e22c490b588248174677d8f710e3458d69fc424207959a9d9291610495828787612000565b51908152a36001600355005b83606492519162461bcd60e51b8352820152601360248201527f53574545505f544f4b454e5f494e56414c4944000000000000000000000000006044820152fd5b905083115f610460565b90508481813d8311610512575b6105038183611dde565b8101031261021357515f610455565b503d6104f9565b83513d5f823e3d90fd5b83606492519162461bcd60e51b8352820152600c60248201527f544f4b454e5f41435449564500000000000000000000000000000000000000006044820152fd5b826105b0915191829162461bcd60e51b8352820160609060208152600e60208201527f54524541535552595f554e53455400000000000000000000000000000000000060408201520190565b0390fd5b606483602087519162461bcd60e51b8352820152600a60248201527f544f4b454e5f5a45524f000000000000000000000000000000000000000000006044820152fd5b8234610213575f6003193601126102135767ffffffffffffffff825460081c16906201518091828102928184041490151715610637576020925051908152f35b601183634e487b7160e01b5f525260245ffd5b825f6003193601126102135761065e611f8f565b610666611fca565b60ff60085416156108515760095490811561080557620151804204335f526020936007855267ffffffffffffffff80845f20541690600184018085116107f257168091146107b05784341061076e57335f5260078652835f209067ffffffffffffffff1982541617905583341161070e575b507f95f6a08cb3a2fbe1fae99a2b3b4e974c92f3f86c5abbe085486c5433d9a5ef6b929382519485528401523392a26001600355005b5f80808061071c8834611e54565b335af1610727611e15565b506106d8576064908584519162461bcd60e51b8352820152601060248201527f504153535f524546554e445f4641494c000000000000000000000000000000006044820152fd5b6064828786519162461bcd60e51b8352820152600d60248201527f504153535f554e444552504159000000000000000000000000000000000000006044820152fd5b6064828786519162461bcd60e51b8352820152600b60248201527f504153535f4558495354530000000000000000000000000000000000000000006044820152fd5b601184634e487b7160e01b5f525260245ffd5b826105b0915191829162461bcd60e51b8352820160609060208152600f60208201527f504153535f50524943455f5a45524f000000000000000000000000000000000060408201520190565b906020606492519162461bcd60e51b8352820152600d60248201527f504153535f44495341424c4544000000000000000000000000000000000000006044820152fd5b8234610213575f600319360112610213576020906001600160a01b03600154169051908152f35b82346102135780600319360112610213576108d4611d09565b90602435926108e1611f4c565b5f198403610964575060206001600160a01b03837f82af1bdfcd7429ff4452aa0ad3e30635d41a1dfe7a1125666e13d55ce596a5ef93827f4441494c595f434150000000000000000000000000000000000000000000000096165f5260058452805f206fffffffffffffffffffffffffffffffff81541690555b519586521693a3005b6fffffffffffffffffffffffffffffffff908185116109fe57506001600160a01b03837f82af1bdfcd7429ff4452aa0ad3e30635d41a1dfe7a1125666e13d55ce596a5ef93602093837f4441494c595f434150000000000000000000000000000000000000000000000097165f5260058552815f20908154906fffffffffffffffffffffffffffffffff198a60801b16911617905561095b565b606490602084519162461bcd60e51b8352820152601260248201527f4441494c594341505f544f4f5f4c4152474500000000000000000000000000006044820152fd5b8234610213578060031936011261021357610a7b9135610a766001610a64611d1f565b93835f5260026020525f2001546120fa565b612195565b005b8234610213578060031936011261021357610a96611d09565b6024359081151590818303610213576020937f424c41434b4c4953540000000000000000000000000000000000000000000000937f82af1bdfcd7429ff4452aa0ad3e30635d41a1dfe7a1125666e13d55ce596a5ef937f6a12b3df6cba4203bd7fd06b816789f87de8c594299aed5717ae070fac781bac6001600160a01b038895610b1f611f4c565b16978892835f52600b8252855f2060ff1981541660ff83161790558551908152a215610b535760ff6001915b5191168152a3005b60ff5f91610b4b565b823461021357602060031936011261021357813591610b79611f4c565b8215610bd1575f7f504153535f5052494345000000000000000000000000000000000000000000007f82af1bdfcd7429ff4452aa0ad3e30635d41a1dfe7a1125666e13d55ce596a5ef602086868160095551908152a3005b6105b0915191829162461bcd60e51b8352820160609060208152601360208201527f504153535f50524943455f52455155495245440000000000000000000000000060408201520190565b8234610213575f6003193601126102135760209060ff600a541690519015158152f35b8234610213578060031936011261021357610c58611d09565b9060243591610c65611f4c565b6fffffffffffffffffffffffffffffffff93848411610cfc57507f5045525f434c41494d0000000000000000000000000000000000000000000000927f82af1bdfcd7429ff4452aa0ad3e30635d41a1dfe7a1125666e13d55ce596a5ef926001600160a01b036020931695865f5260058452815f209083166fffffffffffffffffffffffffffffffff1982541617905551908152a3005b606490602084519162461bcd60e51b8352820152601260248201527f504552434c41494d5f544f4f5f4c4152474500000000000000000000000000006044820152fd5b905034610213578160031936011261021357610d59611d09565b91602435927f0914bb97ca83e85ef385857d9d418f187ff630589e0c9f44db92976d8e4519cb805f526002602052825f20335f5260205260ff835f20541615610e9357508315610e50576001600160a01b0316918151907f23b872dd0000000000000000000000000000000000000000000000000000000060208301523360248301523060448301528460648301526064825260a082019082821067ffffffffffffffff831117610e3d57508252610e11908361220a565b519182527f9ac8f8f804c58a5ee0a5e1bfed5351fd7e0c1af16216c2c3dc97305a71a7cb8760203393a3005b604190634e487b7160e01b5f525260245ffd5b606483602084519162461bcd60e51b8352820152600e60248201527f494e56414c49445f414d4f554e540000000000000000000000000000000000006044820152fd5b836044918451917fe2517d3f00000000000000000000000000000000000000000000000000000000835233908301526024820152fd5b8234610213575f60031936011261021357602090515f8152f35b8234610213578060031936011261021357602091610eff611d1f565b90355f52600283526001600160a01b03825f2091165f52825260ff815f20541690519015158152f35b8234610213575f600319360112610213576020906001600160a01b035f54169051908152f35b8234610213578060031936011261021357602090610f7b610f6d611d09565b610f75611d1f565b90611ee0565b9051908152f35b823461021357602060031936011261021357602090610f7b610fa2611d09565b611e61565b905034610213575f600319360112610213577f62e78cea01bee320cd4e420270b5ea74000d11b0c9f74754ebdbfc544b05a25891602091610fe6611f4c565b610fee611fca565b600160ff1982541617905551338152a1005b8234610213576020600319360112610213576020906001600160a01b03611025611d09565b165f52600582526fffffffffffffffffffffffffffffffff815f2054169051908152f35b8234610213575f60031936011261021357600154916001600160a01b039133838516036110c157505073ffffffffffffffffffffffffffffffffffffffff198092166001555f549133908316175f553391167f8be0079c531659141344cd1fd0a4f28419497f9722a3daafe3b4186f6b6457e05f80a3005b6024925051907f118cdaa70000000000000000000000000000000000000000000000000000000082523390820152fd5b90503461021357816003193601126102135761110b611cfa565b60243591611117611f4c565b8180611232575b6111e6575f7f504153535f50524943450000000000000000000000000000000000000000000060208086888760ff196008541660ff821515161760085586146111be57857f504149445f504153535f454e41424c454400000000000000000000000000000060015b60ff8451911681527f82af1bdfcd7429ff4452aa0ad3e30635d41a1dfe7a1125666e13d55ce596a5ef968791a38160095551908152a3005b857f504149445f504153535f454e41424c454400000000000000000000000000000081611186565b6105b090845191829162461bcd60e51b8352820160609060208152601360208201527f504153535f50524943455f52455155495245440000000000000000000000000060408201520190565b50821561111e565b34610213575f60031936011261021357611252611f4c565b5f6001600160a01b0373ffffffffffffffffffffffffffffffffffffffff19806001541660015582549081168355167f8be0079c531659141344cd1fd0a4f28419497f9722a3daafe3b4186f6b6457e08280a3005b8234610213575f600319360112610213576020906001600160a01b03600c54169051908152f35b8234610213575f6003193601126102135760ff602092541690519015158152f35b823461021357602060031936011261021357611309611f4c565b6201518091828135049267ffffffffffffffff84169384156113c8577fffffffffffffffffffffffffffffffffffffffffffffff0000000000000000ff68ffffffffffffffff0084549260081b169116178255808402938404036113b5575f7f434f4f4c444f574e0000000000000000000000000000000000000000000000007f82af1bdfcd7429ff4452aa0ad3e30635d41a1dfe7a1125666e13d55ce596a5ef6020868651908152a3005b601190634e487b7160e01b5f525260245ffd5b606483602086519162461bcd60e51b8352820152601060248201527f494e56414c49445f434f4f4c444f574e000000000000000000000000000000006044820152fd5b8234610213575f6003193601126102135760209060ff6008541690519015158152f35b8234610213575f60031936011261021357611447611f4c565b815460ff81161561148557907f5db9ee0a495bf2e6ff9c91a7834c1ba4fdd244a5e8aa4e537bd38aeae4b073aa9260ff1960209316905551338152a1005b50517f8dfc202b000000000000000000000000000000000000000000000000000000008152fd5b8234610213576020600319360112610213578135906114c9611f8f565b6114d1612068565b6001600160a01b03600c54169283156115c757821580156115be575b61157c575f80808086885af1611501611e15565b501561153a575060205f927f5a19430830fcfde0e22c490b588248174677d8f710e3458d69fc424207959a9d9251908152a36001600355005b6020606492519162461bcd60e51b8352820152600e60248201527f53574545505f4554485f4641494c0000000000000000000000000000000000006044820152fd5b6020606492519162461bcd60e51b8352820152601160248201527f53574545505f4554485f494e56414c49440000000000000000000000000000006044820152fd5b504783116114ed565b6105b0915191829162461bcd60e51b8352820160609060208152600e60208201527f54524541535552595f554e53455400000000000000000000000000000000000060408201520190565b823461021357806003193601126102135761162b611d1f565b90336001600160a01b038316036116475750610a7b9135612195565b9050517f6697b232000000000000000000000000000000000000000000000000000000008152fd5b8234610213575f60031936011261021357602090517f0914bb97ca83e85ef385857d9d418f187ff630589e0c9f44db92976d8e4519cb8152f35b8234610213575f600319360112610213576020906009549051908152f35b8234610213578060031936011261021357610a7b91356116ea6001610a64611d1f565b61211c565b82346102135760206003193601126102135760209061171461170f611d09565b611d97565b90519015158152f35b823461021357602060031936011261021357602091355f52600282526001815f2001549051908152f35b905034610213578160031936011261021357611761611d09565b611769611d1f565b90611772611f8f565b61177a611fca565b6001600160a01b03808316918215611b8a5760ff600a541680611b75575b611b32571690815f52602060058152855f208054906fffffffffffffffffffffffffffffffff808316978815611af0576201518042049167ffffffffffffffff94600186851695019384549086888360801c1603611aa5575b505060ff600854166119f0575b885f52600687528b5f20335f528752858c5f20541680611921575b50835492828416918c830180931161190e5760801c8015159081611904575b506118c257506fffffffffffffffffffffffffffffffff1990921691161790556118bb9785927f0ffa55c11cec5055a4f567b0ff6e1e0eef2af17baafddd35f31ab4ed1afb75469261188990611d35565b90845f5260068652825f20335f528652825f20911667ffffffffffffffff1982541617905551928784523393a4612000565b6001600355005b606490888e519162461bcd60e51b8352820152601260248201527f4441494c595f4341505f455843454544454400000000000000000000000000006044820152fd5b905082115f611838565b601182634e487b7160e01b5f525260245ffd5b61192a90611d7e565b85878216146119ae57858780865460081c16600181119384611997575b50505050611955575f611819565b606483888e519162461bcd60e51b8352820152600860248201527f434f4f4c444f574e0000000000000000000000000000000000000000000000006044820152fd5b6119a392939450611d62565b161185875f80611947565b606484898f519162461bcd60e51b8352820152600c60248201527f434f4f4c444f574e5f44415900000000000000000000000000000000000000006044820152fd5b60095415611a59578b8680611a0488611d35565b92335f5260078b525f2054169116146117fe57606483888e519162461bcd60e51b8352820152600d60248201527f504153535f5245515549524544000000000000000000000000000000000000006044820152fd5b6105b0838d5191829162461bcd60e51b8352820160609060208152600f60208201527f504153535f50524943455f5a45524f000000000000000000000000000000000060408201520190565b77ffffffffffffffff000000000000000000000000000000007fffffffffffffffff0000000000000000000000000000000000000000000000009160801b1691161784555f806117f1565b606490858b519162461bcd60e51b8352820152600e60248201527f434c41494d5f44495341424c45440000000000000000000000000000000000006044820152fd5b606485602088519162461bcd60e51b8352820152600b60248201527f424c41434b4c49535445440000000000000000000000000000000000000000006044820152fd5b50335f52600b60205260ff865f205416611798565b606485602088519162461bcd60e51b8352820152600a60248201527f494e56414c49445f544f000000000000000000000000000000000000000000006044820152fd5b8234610213576020600319360112610213577f424c41434b4c4953545f454e41424c45440000000000000000000000000000007f82af1bdfcd7429ff4452aa0ad3e30635d41a1dfe7a1125666e13d55ce596a5ef60205f93611c2d611cfa565b611c35611f4c565b60ff19600a541660ff8215151617600a558514611c54575160018152a3005b60ff8591610b4b565b90346102135760206003193601126102135735907fffffffff00000000000000000000000000000000000000000000000000000000821680920361021357817f7965db0b0000000000000000000000000000000000000000000000000000000060209314908115611cd0575b5015158152f35b7f01ffc9a70000000000000000000000000000000000000000000000000000000091501483611cc9565b60043590811515820361021357565b600435906001600160a01b038216820361021357565b602435906001600160a01b038216820361021357565b90600167ffffffffffffffff80931601918211611d4e57565b634e487b7160e01b5f52601160045260245ffd5b91909167ffffffffffffffff80809416911601918211611d4e57565b905f1967ffffffffffffffff80931601918211611d4e57565b60ff6008541615611dd9576001600160a01b03165f52600760205267ffffffffffffffff8060405f2054169062015180420460018101809111611d4e57161490565b505f90565b90601f601f19910116810190811067ffffffffffffffff821117611e0157604052565b634e487b7160e01b5f52604160045260245ffd5b3d15611e4f573d9067ffffffffffffffff8211611e015760405191611e446020601f19601f8401160184611dde565b82523d5f602084013e565b606090565b91908203918211611d4e57565b6001600160a01b03165f52600560205260405f20805460801c908115611ed957600167ffffffffffffffff910154908062015180420416908260801c16145f14611ed2576fffffffffffffffffffffffffffffffff165b80821115611ecc57611ec991611e54565b90565b50505f90565b505f611eb8565b50505f1990565b6001600160a01b038091165f52600660205260405f2091165f5260205267ffffffffffffffff8060405f2054168015611f4657611f1f611f2d91611d7e565b8260045460081c1690611d62565b166201518090818102918183041490151715611d4e5790565b50504290565b6001600160a01b035f54163303611f5f57565b60246040517f118cdaa7000000000000000000000000000000000000000000000000000000008152336004820152fd5b600260035414611fa0576002600355565b60046040517f3ee5aeb5000000000000000000000000000000000000000000000000000000008152fd5b60ff60045416611fd657565b60046040517fd93c0665000000000000000000000000000000000000000000000000000000008152fd5b916001600160a01b03604051927fa9059cbb000000000000000000000000000000000000000000000000000000006020850152166024830152604482015260448152608081019181831067ffffffffffffffff841117611e01576120669260405261220a565b565b335f9081527fc0a3be63cc7de3909d43a0d8fc5a3c6357ea79202489f4985e753b0fa052d7c360205260409020547f3496e2e73c4d42b75d702e60d9e48102720b8691234415963a5a857b86425d079060ff16156120c35750565b604490604051907fe2517d3f0000000000000000000000000000000000000000000000000000000082523360048301526024820152fd5b805f52600260205260405f20335f5260205260ff60405f205416156120c35750565b90815f5260026020526001600160a01b0360405f20911690815f5260205260ff60405f205416155f14611ecc57815f52600260205260405f20815f5260205260405f20600160ff1982541617905533917f2f8788117e7eff1d82e926ec794901d17c78024a50270940304540a733656f0d5f80a4600190565b90815f5260026020526001600160a01b0360405f20911690815f5260205260ff60405f2054165f14611ecc57815f52600260205260405f20815f5260205260405f2060ff19815416905533917ff6391f5c32d9c69d2a47ea670b442974b53935d1edc7fd64eb21e047a839171b5f80a4600190565b905f602091828151910182855af11561227c575f513d61227357506001600160a01b0381163b155b6122395750565b6024906001600160a01b03604051917f5274afe7000000000000000000000000000000000000000000000000000000008352166004820152fd5b60011415612232565b6040513d5f823e3d90fdfea2646970667358221220fe26df29b1e3604a46324f3f26ddf4c8d66127394707756bc36159a44f5bb0fe64736f6c634300081800332f8788117e7eff1d82e926ec794901d17c78024a50270940304540a733656f0dac33ff75c19e70fe83507db0d683fd3465c996598dc972688b7ace676c89077b","linkReferences":{}},"methodIdentifiers":{"DEFAULT_ADMIN_ROLE()":"a217fddf","FUNDER_ROLE()":"34aedecd","TREASURER_ROLE()":"f0a3a97c","acceptOwnership()":"79ba5097","blacklistEnabled()":"bffb691d","buyDailyPass()":"e389eba0","claim(address,address)":"21c0b342","cooldownSec()":"e7cb9f2d","fundVault(address,uint256)":"a5e0759a","getRoleAdmin(bytes32)":"248a9ca3","grantRole(bytes32,address)":"2f2ff15d","hasActivePass(address)":"2b6d7a66","hasRole(bytes32,address)":"91d14854","isBlacklisted(address)":"fe575a87","nextAvailableAt(address,address)":"8999c444","owner()":"8da5cb5b","paidPassEnabled()":"4ee0fbb1","passPriceEth()":"328e69ff","pause()":"8456cb59","paused()":"5c975abb","pendingOwner()":"e30c3978","perClaim(address)":"8386ac9e","renounceOwnership()":"715018a6","renounceRole(bytes32,address)":"36568abe","revokeRole(bytes32,address)":"d547741f","setBlacklistEnabled(bool)":"1201cbd0","setBlacklisted(address,bool)":"d01dd6d2","setCooldown(uint256)":"4fc3f41a","setDailyCap(address,uint256)":"da09a331","setPaidPass(bool,uint256)":"75062d13","setPassPriceEth(uint256)":"c4ce9f48","setPerClaim(address,uint256)":"bc9214e9","setTreasury(address)":"f0f44260","supportsInterface(bytes4)":"01ffc9a7","sweepEth(uint256)":"38e95769","sweepToken(address,uint256)":"e90a182f","systemRemainingToday(address)":"8731c2f2","transferOwnership(address)":"f2fde38b","treasury()":"61d027b3","unpause()":"3f4ba83a"},"id":36}