{"abi":[{"type":"constructor","inputs":[],"stateMutability":"nonpayable"},{"type":"function","name":"acceptOwnership","inputs":[],"outputs":[],"stateMutability":"nonpayable"},{"type":"function","name":"claim","inputs":[{"name":"token","type":"address","internalType":"address"},{"name":"to","type":"address","internalType":"address"}],"outputs":[],"stateMutability":"nonpayable"},{"type":"function","name":"cooldownSec","inputs":[],"outputs":[{"name":"","type":"uint256","internalType":"uint256"}],"stateMutability":"view"},{"type":"function","name":"nextAvailableAt","inputs":[{"name":"token","type":"address","internalType":"address"},{"name":"user","type":"address","internalType":"address"}],"outputs":[{"name":"","type":"uint256","internalType":"uint256"}],"stateMutability":"view"},{"type":"function","name":"owner","inputs":[],"outputs":[{"name":"","type":"address","internalType":"address"}],"stateMutability":"view"},{"type":"function","name":"pause","inputs":[],"outputs":[],"stateMutability":"nonpayable"},{"type":"function","name":"paused","inputs":[],"outputs":[{"name":"","type":"bool","internalType":"bool"}],"stateMutability":"view"},{"type":"function","name":"pendingOwner","inputs":[],"outputs":[{"name":"","type":"address","internalType":"address"}],"stateMutability":"view"},{"type":"function","name":"perClaim","inputs":[{"name":"token","type":"address","internalType":"address"}],"outputs":[{"name":"","type":"uint256","internalType":"uint256"}],"stateMutability":"view"},{"type":"function","name":"renounceOwnership","inputs":[],"outputs":[],"stateMutability":"nonpayable"},{"type":"function","name":"setCooldown","inputs":[{"name":"newCooldown","type":"uint256","internalType":"uint256"}],"outputs":[],"stateMutability":"nonpayable"},{"type":"function","name":"setDailyCap","inputs":[{"name":"token","type":"address","internalType":"address"},{"name":"cap","type":"uint256","internalType":"uint256"}],"outputs":[],"stateMutability":"nonpayable"},{"type":"function","name":"setPerClaim","inputs":[{"name":"token","type":"address","internalType":"address"},{"name":"amount","type":"uint256","internalType":"uint256"}],"outputs":[],"stateMutability":"nonpayable"},{"type":"function","name":"systemRemainingToday","inputs":[{"name":"token","type":"address","internalType":"address"}],"outputs":[{"name":"","type":"uint256","internalType":"uint256"}],"stateMutability":"view"},{"type":"function","name":"transferOwnership","inputs":[{"name":"newOwner","type":"address","internalType":"address"}],"outputs":[],"stateMutability":"nonpayable"},{"type":"function","name":"unpause","inputs":[],"outputs":[],"stateMutability":"nonpayable"},{"type":"event","name":"Claimed","inputs":[{"name":"token","type":"address","indexed":true,"internalType":"address"},{"name":"user","type":"address","indexed":true,"internalType":"address"},{"name":"amount","type":"uint256","indexed":false,"internalType":"uint256"},{"name":"to","type":"address","indexed":true,"internalType":"address"}],"anonymous":false},{"type":"event","name":"OwnershipTransferStarted","inputs":[{"name":"previousOwner","type":"address","indexed":true,"internalType":"address"},{"name":"newOwner","type":"address","indexed":true,"internalType":"address"}],"anonymous":false},{"type":"event","name":"OwnershipTransferred","inputs":[{"name":"previousOwner","type":"address","indexed":true,"internalType":"address"},{"name":"newOwner","type":"address","indexed":true,"internalType":"address"}],"anonymous":false},{"type":"event","name":"ParamUpdated","inputs":[{"name":"key","type":"bytes32","indexed":true,"internalType":"bytes32"},{"name":"token","type":"address","indexed":true,"internalType":"address"},{"name":"value","type":"uint256","indexed":false,"internalType":"uint256"}],"anonymous":false},{"type":"event","name":"Paused","inputs":[{"name":"account","type":"address","indexed":false,"internalType":"address"}],"anonymous":false},{"type":"event","name":"Unpaused","inputs":[{"name":"account","type":"address","indexed":false,"internalType":"address"}],"anonymous":false},{"type":"error","name":"EnforcedPause","inputs":[]},{"type":"error","name":"ExpectedPause","inputs":[]},{"type":"error","name":"OwnableInvalidOwner","inputs":[{"name":"owner","type":"address","internalType":"address"}]},{"type":"error","name":"OwnableUnauthorizedAccount","inputs":[{"name":"account","type":"address","internalType":"address"}]},{"type":"error","name":"ReentrancyGuardReentrantCall","inputs":[]},{"type":"error","name":"SafeERC20FailedOperation","inputs":[{"name":"token","type":"address","internalType":"address"}]}],"bytecode":{"object":"0x608080604052346100895733156100745760018060a01b031980600154166001555f549033908216175f5560405190339060018060a01b03167f8be0079c531659141344cd1fd0a4f28419497f9722a3daafe3b4186f6b6457e05f80a3600160025562015180600455610b9f908161008e8239f35b631e4fbdf760e01b81525f6004820152602490fd5b5f80fdfe6080604081815260049081361015610015575f80fd5b5f3560e01c92836321c0b3421461060e575082633f4ba83a1461058f5782634fc3f41a146104d85782635c975abb146104b6578263715018a61461044957826379ba5097146103a25782638386ac9e1461036c5782638456cb59146103145782638731c2f2146102f05782638999c444146102bd5782638da5cb5b14610298578263bc9214e914610213578263da09a3311461018b578263e30c397814610165578263e7cb9f2d1461014a57505063f2fde38b146100d1575f80fd5b34610146576020600319360112610146576100ea61099c565b6100f2610b26565b6001600160a01b03809116908173ffffffffffffffffffffffffffffffffffffffff1960015416176001555f54167f38d16b8cac22d99fc7c124b9cd0de2d3fa1faef420bfe791d8c362d765e227005f80a3005b5f80fd5b34610146575f60031936011261014657602091549051908152f35b34610146575f600319360112610146576020906001600160a01b03600154169051908152f35b346101465780600319360112610146577f4441494c595f43415000000000000000000000000000000000000000000000007f82af1bdfcd7429ff4452aa0ad3e30635d41a1dfe7a1125666e13d55ce596a5ef60206101e761099c565b6001600160a01b03602435916101fb610b26565b1694855f5260058352816001825f20015551908152a3005b346101465780600319360112610146577f5045525f434c41494d00000000000000000000000000000000000000000000007f82af1bdfcd7429ff4452aa0ad3e30635d41a1dfe7a1125666e13d55ce596a5ef602061026f61099c565b6001600160a01b0360243591610283610b26565b1694855f526005835281815f205551908152a3005b34610146575f600319360112610146576020906001600160a01b035f54169051908152f35b346101465780600319360112610146576020906102e96102db61099c565b6102e36109b2565b90610a7e565b9051908152f35b34610146576020600319360112610146576020906102e961030f61099c565b610a02565b34610146575f6003193601126101465760207f62e78cea01bee320cd4e420270b5ea74000d11b0c9f74754ebdbfc544b05a25891610350610b26565b610358610af0565b600160ff19600354161760035551338152a1005b34610146576020600319360112610146576020906001600160a01b0361039061099c565b165f5260058252805f20549051908152f35b34610146575f60031936011261014657600154916001600160a01b0391338385160361041957505073ffffffffffffffffffffffffffffffffffffffff198092166001555f549133908316175f553391167f8be0079c531659141344cd1fd0a4f28419497f9722a3daafe3b4186f6b6457e05f80a3005b6024925051907f118cdaa70000000000000000000000000000000000000000000000000000000082523390820152fd5b34610146575f60031936011261014657610461610b26565b5f6001600160a01b0373ffffffffffffffffffffffffffffffffffffffff19806001541660015582549081168355167f8be0079c531659141344cd1fd0a4f28419497f9722a3daafe3b4186f6b6457e08280a3005b34610146575f6003193601126101465760209060ff6003541690519015158152f35b9034610146576020600319360112610146578035906104f5610b26565b811561054c576020825f947f434f4f4c444f574e000000000000000000000000000000000000000000000000947f82af1bdfcd7429ff4452aa0ad3e30635d41a1dfe7a1125666e13d55ce596a5ef945551908152a3005b606490602084519162461bcd60e51b8352820152601060248201527f494e56414c49445f434f4f4c444f574e000000000000000000000000000000006044820152fd5b34610146575f600319360112610146576105a7610b26565b6003549160ff8316156105e7577f5db9ee0a495bf2e6ff9c91a7834c1ba4fdd244a5e8aa4e537bd38aeae4b073aa60208360ff19861660035551338152a1005b90517f8dfc202b000000000000000000000000000000000000000000000000000000008152fd5b92503461014657806003193601126101465761062861099c565b906106316109b2565b600294858054146109755750848055610648610af0565b6001600160a01b03809116928315610932571691825f5260209060058252825f2080549081156108f057620151804204908160038201818154036108e3575b5050865f5260068552855f20335f528552855f20908154801515908180926108d6575b610894578161087f575b5061083d5789810160016106c98683546109c8565b9201548015159081610833575b506107f1579060019291554281550155818451828152867f0ffa55c11cec5055a4f567b0ff6e1e0eef2af17baafddd35f31ab4ed1afb7546863393a4835190838201927fa9059cbb00000000000000000000000000000000000000000000000000000000845260248301526044820152604481526080810181811067ffffffffffffffff8211176107c5578452515f9182865af1156107bc575f513d6107b35750813b155b6107855760018455005b6024935051917f5274afe7000000000000000000000000000000000000000000000000000000008352820152fd5b6001141561077b565b513d5f823e3d90fd5b6041877f4e487b71000000000000000000000000000000000000000000000000000000005f525260245ffd5b60648a888a519162461bcd60e51b8352820152601260248201527f4441494c595f4341505f455843454544454400000000000000000000000000006044820152fd5b905082115f6106d6565b6064898789519162461bcd60e51b8352820152600860248201527f434f4f4c444f574e0000000000000000000000000000000000000000000000006044820152fd5b61088c91508a54906109c8565b42105f6106b4565b60648b898b519162461bcd60e51b8352820152600c60248201527f434f4f4c444f574e5f44415900000000000000000000000000000000000000006044820152fd5b50846001850154146106aa565b555f89820155815f610687565b6064878587519162461bcd60e51b8352820152600e60248201527f434c41494d5f44495341424c45440000000000000000000000000000000000006044820152fd5b606485602085519162461bcd60e51b8352820152600a60248201527f494e56414c49445f544f000000000000000000000000000000000000000000006044820152fd5b807f3ee5aeb500000000000000000000000000000000000000000000000000000000869252fd5b600435906001600160a01b038216820361014657565b602435906001600160a01b038216820361014657565b919082018092116109d557565b7f4e487b71000000000000000000000000000000000000000000000000000000005f52601160045260245ffd5b6001600160a01b03165f52600560205260405f206001810154908115610a5857600381015462015180420403610a5157600201545b80821115610a4b5781039081116109d55790565b50505f90565b505f610a37565b50507fffffffffffffffffffffffffffffffffffffffffffffffffffffffffffffffff90565b6001600160a01b038091165f52600660205260405f2091165f5260205260405f2080548015610aea57610ab6600191600454906109c8565b910154600181018091116109d55762015180908181029181830414901517156109d55780821115610ae5575090565b905090565b50504290565b60ff60035416610afc57565b60046040517fd93c0665000000000000000000000000000000000000000000000000000000008152fd5b6001600160a01b035f54163303610b3957565b60246040517f118cdaa7000000000000000000000000000000000000000000000000000000008152336004820152fdfea2646970667358221220312722e82be6bc3403deb077d9604d4918faf3d114c717b6eb34cf5441c764f264736f6c63430008180033","linkReferences":{}},"methodIdentifiers":{"acceptOwnership()":"79ba5097","claim(address,address)":"21c0b342","cooldownSec()":"e7cb9f2d","nextAvailableAt(address,address)":"8999c444","owner()":"8da5cb5b","pause()":"8456cb59","paused()":"5c975abb","pendingOwner()":"e30c3978","perClaim(address)":"8386ac9e","renounceOwnership()":"715018a6","setCooldown(uint256)":"4fc3f41a","setDailyCap(address,uint256)":"da09a331","setPerClaim(address,uint256)":"bc9214e9","systemRemainingToday(address)":"8731c2f2","transferOwnership(address)":"f2fde38b","unpause()":"3f4ba83a"},"id":33}