{"abi":[{"type":"constructor","inputs":[],"stateMutability":"nonpayable"},{"type":"function","name":"DEFAULT_ADMIN_ROLE","inputs":[],"outputs":[{"name":"","type":"bytes32","internalType":"bytes32"}],"stateMutability":"view"},{"type":"function","name":"FUNDER_ROLE","inputs":[],"outputs":[{"name":"","type":"bytes32","internalType":"bytes32"}],"stateMutability":"view"},{"type":"function","name":"IS_DEPRECATED","inputs":[],"outputs":[{"name":"","type":"bool","internalType":"bool"}],"stateMutability":"view"},{"type":"function","name":"TREASURER_ROLE","inputs":[],"outputs":[{"name":"","type":"bytes32","internalType":"bytes32"}],"stateMutability":"view"},{"type":"function","name":"acceptOwnership","inputs":[],"outputs":[],"stateMutability":"nonpayable"},{"type":"function","name":"blacklistEnabled","inputs":[],"outputs":[{"name":"","type":"bool","internalType":"bool"}],"stateMutability":"view"},{"type":"function","name":"buyDailyPass","inputs":[],"outputs":[],"stateMutability":"payable"},{"type":"function","name":"claim","inputs":[{"name":"token","type":"address","internalType":"address"},{"name":"to","type":"address","internalType":"address"}],"outputs":[],"stateMutability":"nonpayable"},{"type":"function","name":"cooldownSec","inputs":[],"outputs":[{"name":"","type":"uint256","internalType":"uint256"}],"stateMutability":"view"},{"type":"function","name":"fundVault","inputs":[{"name":"token","type":"address","internalType":"address"},{"name":"amount","type":"uint256","internalType":"uint256"}],"outputs":[],"stateMutability":"nonpayable"},{"type":"function","name":"getRoleAdmin","inputs":[{"name":"role","type":"bytes32","internalType":"bytes32"}],"outputs":[{"name":"","type":"bytes32","internalType":"bytes32"}],"stateMutability":"view"},{"type":"function","name":"grantRole","inputs":[{"name":"role","type":"bytes32","internalType":"bytes32"},{"name":"account","type":"address","internalType":"address"}],"outputs":[],"stateMutability":"nonpayable"},{"type":"function","name":"hasActivePass","inputs":[{"name":"account","type":"address","internalType":"address"}],"outputs":[{"name":"","type":"bool","internalType":"bool"}],"stateMutability":"view"},{"type":"function","name":"hasRole","inputs":[{"name":"role","type":"bytes32","internalType":"bytes32"},{"name":"account","type":"address","internalType":"address"}],"outputs":[{"name":"","type":"bool","internalType":"bool"}],"stateMutability":"view"},{"type":"function","name":"isBlacklisted","inputs":[{"name":"account","type":"address","internalType":"address"}],"outputs":[{"name":"","type":"bool","internalType":"bool"}],"stateMutability":"view"},{"type":"function","name":"nextAvailableAt","inputs":[{"name":"token","type":"address","internalType":"address"},{"name":"user","type":"address","internalType":"address"}],"outputs":[{"name":"","type":"uint256","internalType":"uint256"}],"stateMutability":"view"},{"type":"function","name":"owner","inputs":[],"outputs":[{"name":"","type":"address","internalType":"address"}],"stateMutability":"view"},{"type":"function","name":"paidPassEnabled","inputs":[],"outputs":[{"name":"","type":"bool","internalType":"bool"}],"stateMutability":"view"},{"type":"function","name":"passPriceEth","inputs":[],"outputs":[{"name":"","type":"uint256","internalType":"uint256"}],"stateMutability":"view"},{"type":"function","name":"pause","inputs":[],"outputs":[],"stateMutability":"nonpayable"},{"type":"function","name":"paused","inputs":[],"outputs":[{"name":"","type":"bool","internalType":"bool"}],"stateMutability":"view"},{"type":"function","name":"pendingOwner","inputs":[],"outputs":[{"name":"","type":"address","internalType":"address"}],"stateMutability":"view"},{"type":"function","name":"perClaim","inputs":[{"name":"token","type":"address","internalType":"address"}],"outputs":[{"name":"","type":"uint256","internalType":"uint256"}],"stateMutability":"view"},{"type":"function","name":"renounceOwnership","inputs":[],"outputs":[],"stateMutability":"nonpayable"},{"type":"function","name":"renounceRole","inputs":[{"name":"role","type":"bytes32","internalType":"bytes32"},{"name":"callerConfirmation","type":"address","internalType":"address"}],"outputs":[],"stateMutability":"nonpayable"},{"type":"function","name":"revokeRole","inputs":[{"name":"role","type":"bytes32","internalType":"bytes32"},{"name":"account","type":"address","internalType":"address"}],"outputs":[],"stateMutability":"nonpayable"},{"type":"function","name":"setBlacklistEnabled","inputs":[{"name":"enabled","type":"bool","internalType":"bool"}],"outputs":[],"stateMutability":"nonpayable"},{"type":"function","name":"setBlacklisted","inputs":[{"name":"account","type":"address","internalType":"address"},{"name":"blacklisted_","type":"bool","internalType":"bool"}],"outputs":[],"stateMutability":"nonpayable"},{"type":"function","name":"setCooldown","inputs":[{"name":"newCooldown","type":"uint256","internalType":"uint256"}],"outputs":[],"stateMutability":"nonpayable"},{"type":"function","name":"setDailyCap","inputs":[{"name":"token","type":"address","internalType":"address"},{"name":"cap","type":"uint256","internalType":"uint256"}],"outputs":[],"stateMutability":"nonpayable"},{"type":"function","name":"setPaidPass","inputs":[{"name":"enabled","type":"bool","internalType":"bool"},{"name":"priceWei","type":"uint256","internalType":"uint256"}],"outputs":[],"stateMutability":"nonpayable"},{"type":"function","name":"setPassPriceEth","inputs":[{"name":"newPrice","type":"uint256","internalType":"uint256"}],"outputs":[],"stateMutability":"nonpayable"},{"type":"function","name":"setPerClaim","inputs":[{"name":"token","type":"address","internalType":"address"},{"name":"amount","type":"uint256","internalType":"uint256"}],"outputs":[],"stateMutability":"nonpayable"},{"type":"function","name":"setTreasury","inputs":[{"name":"newTreasury","type":"address","internalType":"address"}],"outputs":[],"stateMutability":"nonpayable"},{"type":"function","name":"supportsInterface","inputs":[{"name":"interfaceId","type":"bytes4","internalType":"bytes4"}],"outputs":[{"name":"","type":"bool","internalType":"bool"}],"stateMutability":"view"},{"type":"function","name":"sweepEth","inputs":[{"name":"amount","type":"uint256","internalType":"uint256"}],"outputs":[],"stateMutability":"nonpayable"},{"type":"function","name":"sweepToken","inputs":[{"name":"token","type":"address","internalType":"address"},{"name":"amount","type":"uint256","internalType":"uint256"}],"outputs":[],"stateMutability":"nonpayable"},{"type":"function","name":"systemRemainingToday","inputs":[{"name":"token","type":"address","internalType":"address"}],"outputs":[{"name":"","type":"uint256","internalType":"uint256"}],"stateMutability":"view"},{"type":"function","name":"transferOwnership","inputs":[{"name":"newOwner","type":"address","internalType":"address"}],"outputs":[],"stateMutability":"nonpayable"},{"type":"function","name":"treasury","inputs":[],"outputs":[{"name":"","type":"address","internalType":"address"}],"stateMutability":"view"},{"type":"function","name":"unpause","inputs":[],"outputs":[],"stateMutability":"nonpayable"},{"type":"event","name":"BlacklistUpdated","inputs":[{"name":"account","type":"address","indexed":true,"internalType":"address"},{"name":"blacklisted","type":"bool","indexed":false,"internalType":"bool"}],"anonymous":false},{"type":"event","name":"Claimed","inputs":[{"name":"token","type":"address","indexed":true,"internalType":"address"},{"name":"user","type":"address","indexed":true,"internalType":"address"},{"name":"amount","type":"uint256","indexed":false,"internalType":"uint256"},{"name":"to","type":"address","indexed":true,"internalType":"address"}],"anonymous":false},{"type":"event","name":"FundsSwept","inputs":[{"name":"asset","type":"address","indexed":true,"internalType":"address"},{"name":"to","type":"address","indexed":true,"internalType":"address"},{"name":"amount","type":"uint256","indexed":false,"internalType":"uint256"}],"anonymous":false},{"type":"event","name":"OwnershipTransferStarted","inputs":[{"name":"previousOwner","type":"address","indexed":true,"internalType":"address"},{"name":"newOwner","type":"address","indexed":true,"internalType":"address"}],"anonymous":false},{"type":"event","name":"OwnershipTransferred","inputs":[{"name":"previousOwner","type":"address","indexed":true,"internalType":"address"},{"name":"newOwner","type":"address","indexed":true,"internalType":"address"}],"anonymous":false},{"type":"event","name":"ParamUpdated","inputs":[{"name":"key","type":"bytes32","indexed":true,"internalType":"bytes32"},{"name":"token","type":"address","indexed":true,"internalType":"address"},{"name":"value","type":"uint256","indexed":false,"internalType":"uint256"}],"anonymous":false},{"type":"event","name":"PassPurchased","inputs":[{"name":"buyer","type":"address","indexed":true,"internalType":"address"},{"name":"amountPaid","type":"uint256","indexed":false,"internalType":"uint256"},{"name":"dayIndex","type":"uint256","indexed":false,"internalType":"uint256"}],"anonymous":false},{"type":"event","name":"Paused","inputs":[{"name":"account","type":"address","indexed":false,"internalType":"address"}],"anonymous":false},{"type":"event","name":"RoleAdminChanged","inputs":[{"name":"role","type":"bytes32","indexed":true,"internalType":"bytes32"},{"name":"previousAdminRole","type":"bytes32","indexed":true,"internalType":"bytes32"},{"name":"newAdminRole","type":"bytes32","indexed":true,"internalType":"bytes32"}],"anonymous":false},{"type":"event","name":"RoleGranted","inputs":[{"name":"role","type":"bytes32","indexed":true,"internalType":"bytes32"},{"name":"account","type":"address","indexed":true,"internalType":"address"},{"name":"sender","type":"address","indexed":true,"internalType":"address"}],"anonymous":false},{"type":"event","name":"RoleRevoked","inputs":[{"name":"role","type":"bytes32","indexed":true,"internalType":"bytes32"},{"name":"account","type":"address","indexed":true,"internalType":"address"},{"name":"sender","type":"address","indexed":true,"internalType":"address"}],"anonymous":false},{"type":"event","name":"Unpaused","inputs":[{"name":"account","type":"address","indexed":false,"internalType":"address"}],"anonymous":false},{"type":"event","name":"VaultFunded","inputs":[{"name":"token","type":"address","indexed":true,"internalType":"address"},{"name":"funder","type":"address","indexed":true,"internalType":"address"},{"name":"amount","type":"uint256","indexed":false,"internalType":"uint256"}],"anonymous":false},{"type":"error","name":"AccessControlBadConfirmation","inputs":[]},{"type":"error","name":"AccessControlUnauthorizedAccount","inputs":[{"name":"account","type":"address","internalType":"address"},{"name":"neededRole","type":"bytes32","internalType":"bytes32"}]},{"type":"error","name":"EnforcedPause","inputs":[]},{"type":"error","name":"ExpectedPause","inputs":[]},{"type":"error","name":"OwnableInvalidOwner","inputs":[{"name":"owner","type":"address","internalType":"address"}]},{"type":"error","name":"OwnableUnauthorizedAccount","inputs":[{"name":"account","type":"address","internalType":"address"}]},{"type":"error","name":"ReentrancyGuardReentrantCall","inputs":[]},{"type":"error","name":"SafeERC20FailedOperation","inputs":[{"name":"token","type":"address","internalType":"address"}]}],"bytecode":{"object":"0x6080604052346100c75733156100b457600180546001600160a01b03199081169091555f805433928116831782556001600160a01b0316907f8be0079c531659141344cd1fd0a4f28419497f9722a3daafe3b4186f6b6457e09080a3600160035560048054610100600160481b03191661010017905561007e336100cb565b5061008833610141565b50610092336101d4565b50600c80546001600160a01b0319163317905560405161234790816102688239f35b631e4fbdf760e01b5f525f60045260245ffd5b5f80fd5b6001600160a01b0381165f9081525f5160206125cf5f395f51905f52602052604090205460ff1661013c576001600160a01b03165f8181525f5160206125cf5f395f51905f5260205260408120805460ff191660011790553391905f5160206125af5f395f51905f528180a4600190565b505f90565b6001600160a01b0381165f9081525f51602061260f5f395f51905f52602052604090205460ff1661013c576001600160a01b03165f8181525f51602061260f5f395f51905f5260205260408120805460ff191660011790553391907f0914bb97ca83e85ef385857d9d418f187ff630589e0c9f44db92976d8e4519cb905f5160206125af5f395f51905f529080a4600190565b6001600160a01b0381165f9081525f5160206125ef5f395f51905f52602052604090205460ff1661013c576001600160a01b03165f8181525f5160206125ef5f395f51905f5260205260408120805460ff191660011790553391907f3496e2e73c4d42b75d702e60d9e48102720b8691234415963a5a857b86425d07905f5160206125af5f395f51905f529080a460019056fe6080806040526004361015610012575f80fd5b5f3560e01c90816301ffc9a714611ceb575080631201cbd014611c1557806321c0b34214611768578063248a9ca31461173d5780632b6d7a66146117105780632f2ff15d146116d2578063328e69ff146116b557806334aedecd1461167b57806336568abe1461161e57806338e95769146115005780633f4ba83a146114815780634ee0fbb11461145f5780634fc3f41a1461134e5780635c975abb1461132c57806361d027b314611306578063715018a61461128557806375062d131461118757806379ba5097146110cd5780638386ac9e146110835780638456cb591461102a5780638731c2f2146110075780638999c44414610fd35780638da5cb5b14610fae57806391d1485414610f645780639cbc50a914610f49578063a217fddf14610f2f578063a5e0759a14610dd0578063bc9214e914610cc0578063bffb691d14610c9e578063c4ce9f4814610be4578063d01dd6d214610ac5578063d547741f14610a80578063da09a331146108ec578063e30c3978146108c6578063e389eba01461067d578063e7cb9f2d1461060e578063e90a182f146103b4578063f0a3a97c1461037a578063f0f442601461029a578063f2fde38b146102205763fe575a87146101df575f80fd5b3461021c57602060031936011261021c576001600160a01b03610200611d98565b165f52600b602052602060ff60405f2054166040519015158152f35b5f80fd5b3461021c57602060031936011261021c576001600160a01b03610241611d98565b61024961200f565b168073ffffffffffffffffffffffffffffffffffffffff1960015416176001556001600160a01b035f54167f38d16b8cac22d99fc7c124b9cd0de2d3fa1faef420bfe791d8c362d765e227005f80a3005b3461021c57602060031936011261021c576001600160a01b036102bb611d98565b6102c361200f565b168015610336578073ffffffffffffffffffffffffffffffffffffffff19600c541617600c557f54524541535552590000000000000000000000000000000000000000000000007f82af1bdfcd7429ff4452aa0ad3e30635d41a1dfe7a1125666e13d55ce596a5ef60206040515f8152a3005b606460405162461bcd60e51b815260206004820152600d60248201527f54524541535552595f5a45524f000000000000000000000000000000000000006044820152fd5b3461021c575f60031936011261021c5760206040517f3496e2e73c4d42b75d702e60d9e48102720b8691234415963a5a857b86425d078152f35b3461021c57604060031936011261021c576103cd611d98565b6001600160a01b03602435916103e1612022565b6103e96120e6565b1680156105ca576001600160a01b03600c541691821561058557815f5260056020526fffffffffffffffffffffffffffffffff60405f205416610541576040517f70a08231000000000000000000000000000000000000000000000000000000008152306004820152602081602481865afa908115610536575f91610504575b5081159081156104fa575b506104b6576020816104a87f5a19430830fcfde0e22c490b588248174677d8f710e3458d69fc424207959a9d93868661208f565b604051908152a36001600355005b606460405162461bcd60e51b815260206004820152601360248201527f53574545505f544f4b454e5f494e56414c4944000000000000000000000000006044820152fd5b9050811184610474565b90506020813d60201161052e575b8161051f60209383611e74565b8101031261021c575184610469565b3d9150610512565b6040513d5f823e3d90fd5b606460405162461bcd60e51b815260206004820152600c60248201527f544f4b454e5f41435449564500000000000000000000000000000000000000006044820152fd5b60405162461bcd60e51b815260206004820152600e60248201527f54524541535552595f554e5345540000000000000000000000000000000000006044820152606490fd5b606460405162461bcd60e51b815260206004820152600a60248201527f544f4b454e5f5a45524f000000000000000000000000000000000000000000006044820152fd5b3461021c575f60031936011261021c5767ffffffffffffffff60045460081c166201518081029080820462015180149015171561065057602090604051908152f35b7f4e487b71000000000000000000000000000000000000000000000000000000005f52601160045260245ffd5b5f60031936011261021c57610690612022565b61069861205b565b60ff600854161561088257600954801561083d57620151804204335f52600760205267ffffffffffffffff60405f205416600182018083116106505767ffffffffffffffff168091146107f9578234106107b557335f52600760205267ffffffffffffffff60405f20911667ffffffffffffffff19825416179055813411610753575b60405191825260208201527f95f6a08cb3a2fbe1fae99a2b3b4e974c92f3f86c5abbe085486c5433d9a5ef6b60403392a26001600355005b5f8080806107618634611f03565b335af161076c611ec4565b5061071b57606460405162461bcd60e51b815260206004820152601060248201527f504153535f524546554e445f4641494c000000000000000000000000000000006044820152fd5b606460405162461bcd60e51b815260206004820152600d60248201527f504153535f554e444552504159000000000000000000000000000000000000006044820152fd5b606460405162461bcd60e51b815260206004820152600b60248201527f504153535f4558495354530000000000000000000000000000000000000000006044820152fd5b60405162461bcd60e51b815260206004820152600f60248201527f504153535f50524943455f5a45524f00000000000000000000000000000000006044820152606490fd5b606460405162461bcd60e51b815260206004820152600d60248201527f504153535f44495341424c4544000000000000000000000000000000000000006044820152fd5b3461021c575f60031936011261021c5760206001600160a01b0360015416604051908152f35b3461021c57604060031936011261021c57610905611d98565b6024359061091161200f565b5f198203610995577f82af1bdfcd7429ff4452aa0ad3e30635d41a1dfe7a1125666e13d55ce596a5ef60206001600160a01b0383817f4441494c595f434150000000000000000000000000000000000000000000000095165f526005835260405f206fffffffffffffffffffffffffffffffff81541690555b6040519586521693a3005b6fffffffffffffffffffffffffffffffff8211610a3c577f82af1bdfcd7429ff4452aa0ad3e30635d41a1dfe7a1125666e13d55ce596a5ef60206001600160a01b0383817f4441494c595f434150000000000000000000000000000000000000000000000095165f526005835260405f2080546fffffffffffffffffffffffffffffffff6fffffffffffffffffffffffffffffffff19808a60801b1616911617905561098a565b606460405162461bcd60e51b815260206004820152601260248201527f4441494c594341505f544f4f5f4c4152474500000000000000000000000000006044820152fd5b3461021c57604060031936011261021c57610ac3600435610a9f611dae565b90610abe610ab9825f526002602052600160405f20015490565b612155565b61221f565b005b3461021c57604060031936011261021c57610ade611d98565b60243580151580820361021c577f6a12b3df6cba4203bd7fd06b816789f87de8c594299aed5717ae070fac781bac6001600160a01b03602094610b1f61200f565b16938492835f52600b825260405f2060ff1981541660ff8316179055604051908152a215610b9a577f424c41434b4c49535400000000000000000000000000000000000000000000007f82af1bdfcd7429ff4452aa0ad3e30635d41a1dfe7a1125666e13d55ce596a5ef602060015b60ff60405191168152a3005b7f424c41434b4c49535400000000000000000000000000000000000000000000007f82af1bdfcd7429ff4452aa0ad3e30635d41a1dfe7a1125666e13d55ce596a5ef60205f610b8e565b3461021c57602060031936011261021c57600435610c0061200f565b8015610c59577f504153535f5052494345000000000000000000000000000000000000000000007f82af1bdfcd7429ff4452aa0ad3e30635d41a1dfe7a1125666e13d55ce596a5ef6020835f94600955604051908152a3005b60405162461bcd60e51b815260206004820152601360248201527f504153535f50524943455f5245515549524544000000000000000000000000006044820152606490fd5b3461021c575f60031936011261021c57602060ff600a54166040519015158152f35b3461021c57604060031936011261021c57610cd9611d98565b60243590610ce561200f565b6fffffffffffffffffffffffffffffffff8211610d8c577f82af1bdfcd7429ff4452aa0ad3e30635d41a1dfe7a1125666e13d55ce596a5ef60206001600160a01b037f5045525f434c41494d0000000000000000000000000000000000000000000000931693845f526005825260405f206fffffffffffffffffffffffffffffffff808316166fffffffffffffffffffffffffffffffff19825416179055604051908152a3005b606460405162461bcd60e51b815260206004820152601260248201527f504552434c41494d5f544f4f5f4c4152474500000000000000000000000000006044820152fd5b3461021c57604060031936011261021c57610de9611d98565b335f9081527fbb158ee2d6e63e8ad1cbf83826571f7b7e372d0659c759aea738d2e47548ac266020526040902054602435919060ff1615610ef8578115610eb4576001600160a01b0316610e866040517f23b872dd00000000000000000000000000000000000000000000000000000000602082015233602482015230604482015283606482015260648152610e80608482611e74565b826122a4565b6040519182527f9ac8f8f804c58a5ee0a5e1bfed5351fd7e0c1af16216c2c3dc97305a71a7cb8760203393a3005b606460405162461bcd60e51b815260206004820152600e60248201527f494e56414c49445f414d4f554e540000000000000000000000000000000000006044820152fd5b63e2517d3f60e01b5f52336004527f0914bb97ca83e85ef385857d9d418f187ff630589e0c9f44db92976d8e4519cb60245260445ffd5b3461021c575f60031936011261021c5760206040515f8152f35b3461021c575f60031936011261021c57602060405160018152f35b3461021c57604060031936011261021c57610f7d611dae565b6004355f5260026020526001600160a01b0360405f2091165f52602052602060ff60405f2054166040519015158152f35b3461021c575f60031936011261021c5760206001600160a01b035f5416604051908152f35b3461021c57604060031936011261021c576020610fff610ff1611d98565b610ff9611dae565b90611f94565b604051908152f35b3461021c57602060031936011261021c576020610fff611025611d98565b611f10565b3461021c575f60031936011261021c5761104261200f565b61104a61205b565b600160ff1960045416176004557f62e78cea01bee320cd4e420270b5ea74000d11b0c9f74754ebdbfc544b05a2586020604051338152a1005b3461021c57602060031936011261021c576001600160a01b036110a4611d98565b165f52600560205260206fffffffffffffffffffffffffffffffff60405f205416604051908152f35b3461021c575f60031936011261021c57336001600160a01b03600154160361115b5773ffffffffffffffffffffffffffffffffffffffff19600154166001555f543373ffffffffffffffffffffffffffffffffffffffff198216175f556001600160a01b033391167f8be0079c531659141344cd1fd0a4f28419497f9722a3daafe3b4186f6b6457e05f80a3005b7f118cdaa7000000000000000000000000000000000000000000000000000000005f523360045260245ffd5b3461021c57604060031936011261021c576111a0611d89565b602435906111ac61200f565b808061127d575b610c59577f82af1bdfcd7429ff4452aa0ad3e30635d41a1dfe7a1125666e13d55ce596a5ef60205f937f504153535f5052494345000000000000000000000000000000000000000000009360ff196008541660ff8215151617600855851461125357847f504149445f504153535f454e41424c4544000000000000000000000000000000848460015b60ff60405191168152a380600955604051908152a3005b847f504149445f504153535f454e41424c454400000000000000000000000000000084848361123c565b5081156111b3565b3461021c575f60031936011261021c5761129d61200f565b73ffffffffffffffffffffffffffffffffffffffff19600154166001555f6001600160a01b03815473ffffffffffffffffffffffffffffffffffffffff1981168355167f8be0079c531659141344cd1fd0a4f28419497f9722a3daafe3b4186f6b6457e08280a3005b3461021c575f60031936011261021c5760206001600160a01b03600c5416604051908152f35b3461021c575f60031936011261021c57602060ff600454166040519015158152f35b3461021c57602060031936011261021c5761136761200f565b620151806004350467ffffffffffffffff811690811561141b577fffffffffffffffffffffffffffffffffffffffffffffff0000000000000000ff68ffffffffffffffff006004549260081b169116176004556201518081029081046201518003610650577f434f4f4c444f574e0000000000000000000000000000000000000000000000007f82af1bdfcd7429ff4452aa0ad3e30635d41a1dfe7a1125666e13d55ce596a5ef60205f93604051908152a3005b606460405162461bcd60e51b815260206004820152601060248201527f494e56414c49445f434f4f4c444f574e000000000000000000000000000000006044820152fd5b3461021c575f60031936011261021c57602060ff600854166040519015158152f35b3461021c575f60031936011261021c5761149961200f565b60045460ff8116156114d85760ff19166004557f5db9ee0a495bf2e6ff9c91a7834c1ba4fdd244a5e8aa4e537bd38aeae4b073aa6020604051338152a1005b7f8dfc202b000000000000000000000000000000000000000000000000000000005f5260045ffd5b3461021c57602060031936011261021c5760043561151c612022565b6115246120e6565b6001600160a01b03600c54169081156105855780158015611615575b6115d1575f80808084865af1611554611ec4565b501561158d577f5a19430830fcfde0e22c490b588248174677d8f710e3458d69fc424207959a9d60205f92604051908152a36001600355005b606460405162461bcd60e51b815260206004820152600e60248201527f53574545505f4554485f4641494c0000000000000000000000000000000000006044820152fd5b606460405162461bcd60e51b815260206004820152601160248201527f53574545505f4554485f494e56414c49440000000000000000000000000000006044820152fd5b50478111611540565b3461021c57604060031936011261021c57611637611dae565b336001600160a01b0382160361165357610ac39060043561221f565b7f6697b232000000000000000000000000000000000000000000000000000000005f5260045ffd5b3461021c575f60031936011261021c5760206040517f0914bb97ca83e85ef385857d9d418f187ff630589e0c9f44db92976d8e4519cb8152f35b3461021c575f60031936011261021c576020600954604051908152f35b3461021c57604060031936011261021c57610ac36004356116f1611dae565b9061170b610ab9825f526002602052600160405f20015490565b612196565b3461021c57602060031936011261021c57602061173361172e611d98565b611e26565b6040519015158152f35b3461021c57602060031936011261021c576020610fff6004355f526002602052600160405f20015490565b3461021c57604060031936011261021c57611781611d98565b611789611dae565b90611792612022565b61179a61205b565b6001600160a01b038216908115611bd15760ff600a541680611bbb575b611b77576001600160a01b031691825f52600560205260405f20926fffffffffffffffffffffffffffffffff845416928315611b33576201518042049467ffffffffffffffff861660018201968754908267ffffffffffffffff8360801c1603611ae5575b505060ff60085416611a71575b835f52600660205260405f206001600160a01b0333165f5260205267ffffffffffffffff60405f20541680611986575b506fffffffffffffffffffffffffffffffff87541691868301809311610650575460801c801515908161197c575b5061193857611931966fffffffffffffffffffffffffffffffff806118c59416166fffffffffffffffffffffffffffffffff19825416179055611dc4565b825f52600660205260405f206001600160a01b0333165f5260205267ffffffffffffffff60405f20911667ffffffffffffffff19825416179055604051848152827f0ffa55c11cec5055a4f567b0ff6e1e0eef2af17baafddd35f31ab4ed1afb754660203393a461208f565b6001600355005b606460405162461bcd60e51b815260206004820152601260248201527f4441494c595f4341505f455843454544454400000000000000000000000000006044820152fd5b9050821188611887565b61198f90611e06565b8167ffffffffffffffff821614611a2d578167ffffffffffffffff60045460081c16600181119283611a0d575b5050506119c95787611859565b606460405162461bcd60e51b815260206004820152600860248201527f434f4f4c444f574e0000000000000000000000000000000000000000000000006044820152fd5b67ffffffffffffffff92935090611a2391611de4565b16118189806119bc565b606460405162461bcd60e51b815260206004820152600c60248201527f434f4f4c444f574e5f44415900000000000000000000000000000000000000006044820152fd5b6009541561083d57611a8281611dc4565b335f52600760205267ffffffffffffffff8060405f20541691161461182957606460405162461bcd60e51b815260206004820152600d60248201527f504153535f5245515549524544000000000000000000000000000000000000006044820152fd5b7fffffffffffffffff00000000000000000000000000000000000000000000000090911660809190911b77ffffffffffffffff0000000000000000000000000000000016178755878061181c565b606460405162461bcd60e51b815260206004820152600e60248201527f434c41494d5f44495341424c45440000000000000000000000000000000000006044820152fd5b606460405162461bcd60e51b815260206004820152600b60248201527f424c41434b4c49535445440000000000000000000000000000000000000000006044820152fd5b50335f52600b60205260ff60405f2054166117b7565b606460405162461bcd60e51b815260206004820152600a60248201527f494e56414c49445f544f000000000000000000000000000000000000000000006044820152fd5b3461021c57602060031936011261021c57611c2e611d89565b611c3661200f565b60ff19600a541660ff8215151617600a555f14611ca0575f7f424c41434b4c4953545f454e41424c45440000000000000000000000000000007f82af1bdfcd7429ff4452aa0ad3e30635d41a1dfe7a1125666e13d55ce596a5ef6020600160ff60405191168152a3005b5f7f424c41434b4c4953545f454e41424c45440000000000000000000000000000007f82af1bdfcd7429ff4452aa0ad3e30635d41a1dfe7a1125666e13d55ce596a5ef602083610b8e565b3461021c57602060031936011261021c57600435907fffffffff00000000000000000000000000000000000000000000000000000000821680920361021c57817f7965db0b0000000000000000000000000000000000000000000000000000000060209314908115611d5f575b5015158152f35b7f01ffc9a70000000000000000000000000000000000000000000000000000000091501483611d58565b60043590811515820361021c57565b600435906001600160a01b038216820361021c57565b602435906001600160a01b038216820361021c57565b67ffffffffffffffff60019116019067ffffffffffffffff821161065057565b9067ffffffffffffffff8091169116019067ffffffffffffffff821161065057565b67ffffffffffffffff5f199116019067ffffffffffffffff821161065057565b60ff6008541615611e6f576001600160a01b03165f52600760205267ffffffffffffffff60405f205416620151804204600181018091116106505767ffffffffffffffff161490565b505f90565b90601f601f19910116810190811067ffffffffffffffff821117611e9757604052565b7f4e487b71000000000000000000000000000000000000000000000000000000005f52604160045260245ffd5b3d15611efe573d9067ffffffffffffffff8211611e975760405191611ef36020601f19601f8401160184611e74565b82523d5f602084013e565b606090565b9190820391821161065057565b6001600160a01b03165f52600560205260405f20805460801c908115611f8d576001015467ffffffffffffffff6201518042041667ffffffffffffffff8260801c16145f14611f86576fffffffffffffffffffffffffffffffff165b80821115611f8057611f7d91611f03565b90565b50505f90565b505f611f6c565b50505f1990565b6001600160a01b03165f5260066020526001600160a01b0360405f2091165f5260205267ffffffffffffffff60405f205416801561200a57611fef611fe167ffffffffffffffff92611e06565b8260045460081c1690611de4565b16620151808102908082046201518014901517156106505790565b504290565b6001600160a01b035f5416330361115b57565b600260035414612033576002600355565b7f3ee5aeb5000000000000000000000000000000000000000000000000000000005f5260045ffd5b60ff6004541661206757565b7fd93c0665000000000000000000000000000000000000000000000000000000005f5260045ffd5b6120e4926001600160a01b03604051937fa9059cbb0000000000000000000000000000000000000000000000000000000060208601521660248401526044830152604482526120df606483611e74565b6122a4565b565b335f9081527fc0a3be63cc7de3909d43a0d8fc5a3c6357ea79202489f4985e753b0fa052d7c3602052604090205460ff161561211e57565b63e2517d3f60e01b5f52336004527f3496e2e73c4d42b75d702e60d9e48102720b8691234415963a5a857b86425d0760245260445ffd5b805f52600260205260405f206001600160a01b0333165f5260205260ff60405f205416156121805750565b63e2517d3f60e01b5f523360045260245260445ffd5b805f52600260205260405f206001600160a01b0383165f5260205260ff60405f205416155f14611f8057805f52600260205260405f206001600160a01b0383165f5260205260405f20600160ff198254161790556001600160a01b03339216907f2f8788117e7eff1d82e926ec794901d17c78024a50270940304540a733656f0d5f80a4600190565b805f52600260205260405f206001600160a01b0383165f5260205260ff60405f2054165f14611f8057805f52600260205260405f206001600160a01b0383165f5260205260405f2060ff1981541690556001600160a01b03339216907ff6391f5c32d9c69d2a47ea670b442974b53935d1edc7fd64eb21e047a839171b5f80a4600190565b905f602091828151910182855af115610536575f513d61230857506001600160a01b0381163b155b6122d35750565b6001600160a01b03907f5274afe7000000000000000000000000000000000000000000000000000000005f521660045260245ffd5b600114156122cc56fea2646970667358221220e0eb2aa0f71f7287ea949e254042f2e00a565bc3216f7dae0998bc942f2528eb64736f6c634300081e00332f8788117e7eff1d82e926ec794901d17c78024a50270940304540a733656f0dac33ff75c19e70fe83507db0d683fd3465c996598dc972688b7ace676c89077bc0a3be63cc7de3909d43a0d8fc5a3c6357ea79202489f4985e753b0fa052d7c3bb158ee2d6e63e8ad1cbf83826571f7b7e372d0659c759aea738d2e47548ac26","linkReferences":{}},"methodIdentifiers":{"DEFAULT_ADMIN_ROLE()":"a217fddf","FUNDER_ROLE()":"34aedecd","IS_DEPRECATED()":"9cbc50a9","TREASURER_ROLE()":"f0a3a97c","acceptOwnership()":"79ba5097","blacklistEnabled()":"bffb691d","buyDailyPass()":"e389eba0","claim(address,address)":"21c0b342","cooldownSec()":"e7cb9f2d","fundVault(address,uint256)":"a5e0759a","getRoleAdmin(bytes32)":"248a9ca3","grantRole(bytes32,address)":"2f2ff15d","hasActivePass(address)":"2b6d7a66","hasRole(bytes32,address)":"91d14854","isBlacklisted(address)":"fe575a87","nextAvailableAt(address,address)":"8999c444","owner()":"8da5cb5b","paidPassEnabled()":"4ee0fbb1","passPriceEth()":"328e69ff","pause()":"8456cb59","paused()":"5c975abb","pendingOwner()":"e30c3978","perClaim(address)":"8386ac9e","renounceOwnership()":"715018a6","renounceRole(bytes32,address)":"36568abe","revokeRole(bytes32,address)":"d547741f","setBlacklistEnabled(bool)":"1201cbd0","setBlacklisted(address,bool)":"d01dd6d2","setCooldown(uint256)":"4fc3f41a","setDailyCap(address,uint256)":"da09a331","setPaidPass(bool,uint256)":"75062d13","setPassPriceEth(uint256)":"c4ce9f48","setPerClaim(address,uint256)":"bc9214e9","setTreasury(address)":"f0f44260","supportsInterface(bytes4)":"01ffc9a7","sweepEth(uint256)":"38e95769","sweepToken(address,uint256)":"e90a182f","systemRemainingToday(address)":"8731c2f2","transferOwnership(address)":"f2fde38b","treasury()":"61d027b3","unpause()":"3f4ba83a"},"id":28}