{"src/oracle/ChainlinkOracle.sol":{"ChainlinkOracle":{"abi":[{"type":"constructor","inputs":[{"name":"initialOwner","type":"address","internalType":"address"}],"stateMutability":"nonpayable"},{"type":"function","name":"acceptOwnership","inputs":[],"outputs":[],"stateMutability":"nonpayable"},{"type":"function","name":"getUSDPrice","inputs":[{"name":"token","type":"address","internalType":"address"}],"outputs":[{"name":"pxE18","type":"uint256","internalType":"uint256"},{"name":"updatedAt","type":"uint256","internalType":"uint256"}],"stateMutability":"view"},{"type":"function","name":"latestAnswer","inputs":[{"name":"base","type":"address","internalType":"address"},{"name":"quote","type":"address","internalType":"address"}],"outputs":[{"name":"priceE18","type":"uint256","internalType":"uint256"},{"name":"updatedAt","type":"uint256","internalType":"uint256"},{"name":"src","type":"uint8","internalType":"enum IOracleRouter.PriceSrc"}],"stateMutability":"view"},{"type":"function","name":"owner","inputs":[],"outputs":[{"name":"","type":"address","internalType":"address"}],"stateMutability":"view"},{"type":"function","name":"pendingOwner","inputs":[],"outputs":[{"name":"","type":"address","internalType":"address"}],"stateMutability":"view"},{"type":"function","name":"renounceOwnership","inputs":[],"outputs":[],"stateMutability":"nonpayable"},{"type":"function","name":"setUSDFeed","inputs":[{"name":"token","type":"address","internalType":"address"},{"name":"cfg","type":"tuple","internalType":"struct ChainlinkOracle.FeedUSD","components":[{"name":"aggregator","type":"address","internalType":"address"},{"name":"aggDecimals","type":"uint8","internalType":"uint8"},{"name":"fixedUSDE18","type":"uint88","internalType":"uint88"}]}],"outputs":[],"stateMutability":"nonpayable"},{"type":"function","name":"transferOwnership","inputs":[{"name":"newOwner","type":"address","internalType":"address"}],"outputs":[],"stateMutability":"nonpayable"},{"type":"function","name":"usdFeeds","inputs":[{"name":"","type":"address","internalType":"address"}],"outputs":[{"name":"aggregator","type":"address","internalType":"address"},{"name":"aggDecimals","type":"uint8","internalType":"uint8"},{"name":"fixedUSDE18","type":"uint88","internalType":"uint88"}],"stateMutability":"view"},{"type":"event","name":"OwnershipTransferStarted","inputs":[{"name":"previousOwner","type":"address","indexed":true,"internalType":"address"},{"name":"newOwner","type":"address","indexed":true,"internalType":"address"}],"anonymous":false},{"type":"event","name":"OwnershipTransferred","inputs":[{"name":"previousOwner","type":"address","indexed":true,"internalType":"address"},{"name":"newOwner","type":"address","indexed":true,"internalType":"address"}],"anonymous":false},{"type":"event","name":"USDFeedUpdated","inputs":[{"name":"token","type":"address","indexed":true,"internalType":"address"},{"name":"aggregator","type":"address","indexed":true,"internalType":"address"},{"name":"aggDecimals","type":"uint8","indexed":false,"internalType":"uint8"},{"name":"fixedUSDE18","type":"uint88","indexed":false,"internalType":"uint88"}],"anonymous":false},{"type":"error","name":"OracleBadAnswer","inputs":[{"name":"aggregator","type":"address","internalType":"address"}]},{"type":"error","name":"OracleQuoteZero","inputs":[{"name":"quote","type":"address","internalType":"address"}]},{"type":"error","name":"OwnableInvalidOwner","inputs":[{"name":"owner","type":"address","internalType":"address"}]},{"type":"error","name":"OwnableUnauthorizedAccount","inputs":[{"name":"account","type":"address","internalType":"address"}]}],"userdoc":{},"devdoc":{},"evm":{"bytecode":{"object":"60803460c157601f610aa438819003918201601f19168301916001600160401b0383118484101760c55780849260209460405283398101031260c157516001600160a01b0381169081900360c157801560ae57600180546001600160a01b03199081169091555f80549182168317815560405192916001600160a01b0316907f8be0079c531659141344cd1fd0a4f28419497f9722a3daafe3b4186f6b6457e09080a36109ca90816100da8239f35b631e4fbdf760e01b5f525f60045260245ffd5b5f80fd5b634e487b7160e01b5f52604160045260245ffdfe6080806040526004361015610012575f80fd5b5f3560e01c90816314e4e525146105c8575080634dab692214610476578063715018a6146103f557806379ba50971461033b5780638b2f0f4f1461030c5780638da5cb5b146102e7578063d4c282a314610123578063e30c3978146100fd5763f2fde38b1461007f575f80fd5b346100f95760206003193601126100f9576001600160a01b036100a061061b565b6100a8610981565b168073ffffffffffffffffffffffffffffffffffffffff1960015416176001556001600160a01b035f54167f38d16b8cac22d99fc7c124b9cd0de2d3fa1faef420bfe791d8c362d765e227005f80a3005b5f80fd5b346100f9575f6003193601126100f95760206001600160a01b0360015416604051908152f35b346100f95760406003193601126100f95761013c61061b565b602435906001600160a01b0382168083036100f9576101669061015e83610728565b929094610728565b9481156102bb57670de0b6b3a7640000810290808204670de0b6b3a764000014901517156102a7576001600160a01b03916101a09161070a565b93165f52600260205260405f2090604051916101bb83610671565b546001600160a01b038116835260ff8160a01c16602084015260a81c60408301525f5260026020526001600160a01b0360405f2091604051926101fd84610671565b549260408385169485835260ff8160a01c16602084015260a81c91015251161590159080806102a0575b15610268575050509050600190425b60405191825260208201526002821015610254576060916040820152f35b634e487b7160e01b5f52602160045260245ffd5b15610277575050600191610236565b909290156102885750600191610236565b5f9290808210156102995750610236565b9050610236565b5081610227565b634e487b7160e01b5f52601160045260245ffd5b827f4d27606c000000000000000000000000000000000000000000000000000000005f5260045260245ffd5b346100f9575f6003193601126100f95760206001600160a01b035f5416604051908152f35b346100f95760206003193601126100f957604061032f61032a61061b565b610728565b82519182526020820152f35b346100f9575f6003193601126100f957336001600160a01b0360015416036103c95773ffffffffffffffffffffffffffffffffffffffff19600154166001555f543373ffffffffffffffffffffffffffffffffffffffff198216175f556001600160a01b033391167f8be0079c531659141344cd1fd0a4f28419497f9722a3daafe3b4186f6b6457e05f80a3005b7f118cdaa7000000000000000000000000000000000000000000000000000000005f523360045260245ffd5b346100f9575f6003193601126100f95761040d610981565b73ffffffffffffffffffffffffffffffffffffffff19600154166001555f6001600160a01b03815473ffffffffffffffffffffffffffffffffffffffff1981168355167f8be0079c531659141344cd1fd0a4f28419497f9722a3daafe3b4186f6b6457e08280a3005b346100f95760806003193601126100f95761048f61061b565b60607fffffffffffffffffffffffffffffffffffffffffffffffffffffffffffffffdc3601126100f9576001600160a01b03906104ca610981565b16805f52600260205260405f206001600160a01b036104e7610631565b1673ffffffffffffffffffffffffffffffffffffffff1982541617815561050c610647565b81546001600160a01b0374ff00000000000000000000000000000000000000007fffffffffffffffffffffff000000000000000000000000000000000000000000610555610657565b60a81b169360a01b1691161717905561056c610631565b907f151bf507c6e7ba739675ba2dec86516f0513d19e1a3e2f4f8b2f0597efe51cae60406001600160a01b036105a0610647565b946affffffffffffffffffffff6105b5610657565b60ff8551981688521660208701521693a3005b346100f95760206003193601126100f9576060906001600160a01b036105ec61061b565b165f52600260205260405f20546001600160a01b038116825260ff8160a01c16602083015260a81c6040820152f35b600435906001600160a01b03821682036100f957565b6024356001600160a01b03811681036100f95790565b60443560ff811681036100f95790565b6064356affffffffffffffffffffff811681036100f95790565b6060810190811067ffffffffffffffff82111761068d57604052565b634e487b7160e01b5f52604160045260245ffd5b90601f7fffffffffffffffffffffffffffffffffffffffffffffffffffffffffffffffe0910116810190811067ffffffffffffffff82111761068d57604052565b519069ffffffffffffffffffff821682036100f957565b60ff16604d81116102a757600a0a90565b8115610714570490565b634e487b7160e01b5f52601260045260245ffd5b6001600160a01b03165f52600260205260405f20906040519161074a83610671565b54916001600160a01b038316808252602082019360ff8160a01c16855260a81c806040840152811561097857509060a0600492604051938480927ffeaf968c0000000000000000000000000000000000000000000000000000000082525afa9384156108d8575f925f95610922575b505f8313156108ec575160ff16806108e3575060206001600160a01b036004925116604051928380927f313ce5670000000000000000000000000000000000000000000000000000000082525afa80156108d8575f9061089b575b60ff91505b16601281101561084c5760120360ff81116102a757610837906106f9565b908181029181830414901517156102a7579190565b6012811115610896577fffffffffffffffffffffffffffffffffffffffffffffffffffffffffffffffee019060ff82116102a75761088c610892926106f9565b9061070a565b9190565b509190565b506020813d6020116108d0575b816108b5602093836106a1565b810103126100f9575160ff811681036100f95760ff90610814565b3d91506108a8565b6040513d5f823e3d90fd5b60ff9150610819565b6001600160a01b038251167f18f1571c000000000000000000000000000000000000000000000000000000005f5260045260245ffd5b9250935060a0823d60a011610970575b8161093f60a093836106a1565b810103126100f957610950826106e2565b5060208201516109676080606085015194016106e2565b5091935f6107b9565b3d9150610932565b93504292915050565b6001600160a01b035f541633036103c95756fea2646970667358221220ef03b2578288ea80cc21e9cb4aac43c007fac6d9ea449a58e5f524f4284792c064736f6c634300081e0033","linkReferences":{}},"methodIdentifiers":{"acceptOwnership()":"79ba5097","getUSDPrice(address)":"8b2f0f4f","latestAnswer(address,address)":"d4c282a3","owner()":"8da5cb5b","pendingOwner()":"e30c3978","renounceOwnership()":"715018a6","setUSDFeed(address,(address,uint8,uint88))":"4dab6922","transferOwnership(address)":"f2fde38b","usdFeeds(address)":"14e4e525"}}}}}