{"src/faucet/FaucetV2.sol":{"FaucetV2":{"abi":[{"type":"constructor","inputs":[{"name":"admin","type":"address","internalType":"address"},{"name":"treasury_","type":"address","internalType":"address"},{"name":"initialSigner","type":"address","internalType":"address"},{"name":"name_","type":"string","internalType":"string"},{"name":"version_","type":"string","internalType":"string"}],"stateMutability":"nonpayable"},{"type":"receive","stateMutability":"payable"},{"type":"function","name":"DEFAULT_ADMIN_ROLE","inputs":[],"outputs":[{"name":"","type":"bytes32","internalType":"bytes32"}],"stateMutability":"view"},{"type":"function","name":"FUNDER_ROLE","inputs":[],"outputs":[{"name":"","type":"bytes32","internalType":"bytes32"}],"stateMutability":"view"},{"type":"function","name":"SIGNER_ROLE","inputs":[],"outputs":[{"name":"","type":"bytes32","internalType":"bytes32"}],"stateMutability":"view"},{"type":"function","name":"TREASURER_ROLE","inputs":[],"outputs":[{"name":"","type":"bytes32","internalType":"bytes32"}],"stateMutability":"view"},{"type":"function","name":"balanceOfToken","inputs":[{"name":"token","type":"address","internalType":"address"}],"outputs":[{"name":"","type":"uint256","internalType":"uint256"}],"stateMutability":"view"},{"type":"function","name":"claimWithSig","inputs":[{"name":"p","type":"tuple","internalType":"struct FaucetV2.ClaimReq","components":[{"name":"user","type":"address","internalType":"address"},{"name":"token","type":"address","internalType":"address"},{"name":"amount","type":"uint256","internalType":"uint256"},{"name":"day","type":"uint64","internalType":"uint64"},{"name":"nonce","type":"uint256","internalType":"uint256"},{"name":"deadline","type":"uint256","internalType":"uint256"},{"name":"pass","type":"bool","internalType":"bool"}]},{"name":"sig","type":"bytes","internalType":"bytes"}],"outputs":[],"stateMutability":"nonpayable"},{"type":"function","name":"currentDay","inputs":[],"outputs":[{"name":"","type":"uint64","internalType":"uint64"}],"stateMutability":"view"},{"type":"function","name":"eip712Domain","inputs":[],"outputs":[{"name":"fields","type":"bytes1","internalType":"bytes1"},{"name":"name","type":"string","internalType":"string"},{"name":"version","type":"string","internalType":"string"},{"name":"chainId","type":"uint256","internalType":"uint256"},{"name":"verifyingContract","type":"address","internalType":"address"},{"name":"salt","type":"bytes32","internalType":"bytes32"},{"name":"extensions","type":"uint256[]","internalType":"uint256[]"}],"stateMutability":"view"},{"type":"function","name":"fund","inputs":[{"name":"token","type":"address","internalType":"address"},{"name":"amount","type":"uint256","internalType":"uint256"}],"outputs":[],"stateMutability":"nonpayable"},{"type":"function","name":"getRoleAdmin","inputs":[{"name":"role","type":"bytes32","internalType":"bytes32"}],"outputs":[{"name":"","type":"bytes32","internalType":"bytes32"}],"stateMutability":"view"},{"type":"function","name":"grantRole","inputs":[{"name":"role","type":"bytes32","internalType":"bytes32"},{"name":"account","type":"address","internalType":"address"}],"outputs":[],"stateMutability":"nonpayable"},{"type":"function","name":"hasRole","inputs":[{"name":"role","type":"bytes32","internalType":"bytes32"},{"name":"account","type":"address","internalType":"address"}],"outputs":[{"name":"","type":"bool","internalType":"bool"}],"stateMutability":"view"},{"type":"function","name":"passPriceWei","inputs":[],"outputs":[{"name":"","type":"uint256","internalType":"uint256"}],"stateMutability":"view"},{"type":"function","name":"pause","inputs":[],"outputs":[],"stateMutability":"nonpayable"},{"type":"function","name":"paused","inputs":[],"outputs":[{"name":"","type":"bool","internalType":"bool"}],"stateMutability":"view"},{"type":"function","name":"payPass","inputs":[],"outputs":[],"stateMutability":"payable"},{"type":"function","name":"renounceRole","inputs":[{"name":"role","type":"bytes32","internalType":"bytes32"},{"name":"callerConfirmation","type":"address","internalType":"address"}],"outputs":[],"stateMutability":"nonpayable"},{"type":"function","name":"revokeRole","inputs":[{"name":"role","type":"bytes32","internalType":"bytes32"},{"name":"account","type":"address","internalType":"address"}],"outputs":[],"stateMutability":"nonpayable"},{"type":"function","name":"setPassPriceWei","inputs":[{"name":"price","type":"uint256","internalType":"uint256"}],"outputs":[],"stateMutability":"nonpayable"},{"type":"function","name":"setTokenDailyCap","inputs":[{"name":"token","type":"address","internalType":"address"},{"name":"cap","type":"uint256","internalType":"uint256"}],"outputs":[],"stateMutability":"nonpayable"},{"type":"function","name":"setTokenWhitelist","inputs":[{"name":"token","type":"address","internalType":"address"},{"name":"allowed","type":"bool","internalType":"bool"}],"outputs":[],"stateMutability":"nonpayable"},{"type":"function","name":"setTreasury","inputs":[{"name":"t","type":"address","internalType":"address"}],"outputs":[],"stateMutability":"nonpayable"},{"type":"function","name":"supportsInterface","inputs":[{"name":"interfaceId","type":"bytes4","internalType":"bytes4"}],"outputs":[{"name":"","type":"bool","internalType":"bool"}],"stateMutability":"view"},{"type":"function","name":"sweepETH","inputs":[{"name":"amount","type":"uint256","internalType":"uint256"}],"outputs":[],"stateMutability":"nonpayable"},{"type":"function","name":"sweepToken","inputs":[{"name":"token","type":"address","internalType":"address"},{"name":"amount","type":"uint256","internalType":"uint256"}],"outputs":[],"stateMutability":"nonpayable"},{"type":"function","name":"tokenDailyCap","inputs":[{"name":"","type":"address","internalType":"address"}],"outputs":[{"name":"","type":"uint256","internalType":"uint256"}],"stateMutability":"view"},{"type":"function","name":"tokenWhitelist","inputs":[{"name":"","type":"address","internalType":"address"}],"outputs":[{"name":"","type":"bool","internalType":"bool"}],"stateMutability":"view"},{"type":"function","name":"treasury","inputs":[],"outputs":[{"name":"","type":"address","internalType":"address"}],"stateMutability":"view"},{"type":"function","name":"unpause","inputs":[],"outputs":[],"stateMutability":"nonpayable"},{"type":"event","name":"Claimed","inputs":[{"name":"user","type":"address","indexed":true,"internalType":"address"},{"name":"token","type":"address","indexed":true,"internalType":"address"},{"name":"amount","type":"uint256","indexed":false,"internalType":"uint256"},{"name":"day","type":"uint64","indexed":false,"internalType":"uint64"},{"name":"nonce","type":"uint256","indexed":false,"internalType":"uint256"}],"anonymous":false},{"type":"event","name":"EIP712DomainChanged","inputs":[],"anonymous":false},{"type":"event","name":"FundsSwept","inputs":[{"name":"asset","type":"address","indexed":true,"internalType":"address"},{"name":"to","type":"address","indexed":true,"internalType":"address"},{"name":"amount","type":"uint256","indexed":false,"internalType":"uint256"}],"anonymous":false},{"type":"event","name":"ParamUpdated","inputs":[{"name":"key","type":"bytes32","indexed":true,"internalType":"bytes32"},{"name":"token","type":"address","indexed":true,"internalType":"address"},{"name":"value","type":"uint256","indexed":false,"internalType":"uint256"}],"anonymous":false},{"type":"event","name":"PassPaid","inputs":[{"name":"payer","type":"address","indexed":true,"internalType":"address"},{"name":"amount","type":"uint256","indexed":false,"internalType":"uint256"},{"name":"day","type":"uint64","indexed":false,"internalType":"uint64"}],"anonymous":false},{"type":"event","name":"Paused","inputs":[{"name":"account","type":"address","indexed":false,"internalType":"address"}],"anonymous":false},{"type":"event","name":"RoleAdminChanged","inputs":[{"name":"role","type":"bytes32","indexed":true,"internalType":"bytes32"},{"name":"previousAdminRole","type":"bytes32","indexed":true,"internalType":"bytes32"},{"name":"newAdminRole","type":"bytes32","indexed":true,"internalType":"bytes32"}],"anonymous":false},{"type":"event","name":"RoleGranted","inputs":[{"name":"role","type":"bytes32","indexed":true,"internalType":"bytes32"},{"name":"account","type":"address","indexed":true,"internalType":"address"},{"name":"sender","type":"address","indexed":true,"internalType":"address"}],"anonymous":false},{"type":"event","name":"RoleRevoked","inputs":[{"name":"role","type":"bytes32","indexed":true,"internalType":"bytes32"},{"name":"account","type":"address","indexed":true,"internalType":"address"},{"name":"sender","type":"address","indexed":true,"internalType":"address"}],"anonymous":false},{"type":"event","name":"Unpaused","inputs":[{"name":"account","type":"address","indexed":false,"internalType":"address"}],"anonymous":false},{"type":"error","name":"AccessControlBadConfirmation","inputs":[]},{"type":"error","name":"AccessControlUnauthorizedAccount","inputs":[{"name":"account","type":"address","internalType":"address"},{"name":"neededRole","type":"bytes32","internalType":"bytes32"}]},{"type":"error","name":"DAY_MISMATCH","inputs":[{"name":"got","type":"uint64","internalType":"uint64"},{"name":"want","type":"uint64","internalType":"uint64"}]},{"type":"error","name":"ECDSAInvalidSignature","inputs":[]},{"type":"error","name":"ECDSAInvalidSignatureLength","inputs":[{"name":"length","type":"uint256","internalType":"uint256"}]},{"type":"error","name":"ECDSAInvalidSignatureS","inputs":[{"name":"s","type":"bytes32","internalType":"bytes32"}]},{"type":"error","name":"EXPIRED","inputs":[{"name":"nowTs","type":"uint256","internalType":"uint256"},{"name":"deadline","type":"uint256","internalType":"uint256"}]},{"type":"error","name":"EnforcedPause","inputs":[]},{"type":"error","name":"ExpectedPause","inputs":[]},{"type":"error","name":"INVALID_SIGNER","inputs":[{"name":"recovered","type":"address","internalType":"address"}]},{"type":"error","name":"InvalidShortString","inputs":[]},{"type":"error","name":"NONCE_USED","inputs":[{"name":"user","type":"address","internalType":"address"},{"name":"nonce","type":"uint256","internalType":"uint256"}]},{"type":"error","name":"OVER_DAILY_CAP","inputs":[{"name":"token","type":"address","internalType":"address"},{"name":"next","type":"uint256","internalType":"uint256"},{"name":"cap","type":"uint256","internalType":"uint256"},{"name":"day","type":"uint64","internalType":"uint64"}]},{"type":"error","name":"PRICE_ZERO","inputs":[]},{"type":"error","name":"ReentrancyGuardReentrantCall","inputs":[]},{"type":"error","name":"SWEEP_ETH_INVALID","inputs":[]},{"type":"error","name":"SWEEP_FAIL","inputs":[]},{"type":"error","name":"SafeERC20FailedOperation","inputs":[{"name":"token","type":"address","internalType":"address"}]},{"type":"error","name":"StringTooLong","inputs":[{"name":"str","type":"string","internalType":"string"}]},{"type":"error","name":"TOKEN_NOT_ALLOWED","inputs":[{"name":"token","type":"address","internalType":"address"}]},{"type":"error","name":"TREASURY_UNSET","inputs":[]},{"type":"error","name":"UNDERPAY","inputs":[]},{"type":"error","name":"VAULT_LOW","inputs":[{"name":"token","type":"address","internalType":"address"},{"name":"need","type":"uint256","internalType":"uint256"},{"name":"bal","type":"uint256","internalType":"uint256"}]},{"type":"error","name":"ZERO_ADDR","inputs":[]}],"userdoc":{},"devdoc":{},"evm":{"bytecode":{"object":"6101608060405234610242576125eb803803809161001d8285610246565b833981019060a081830312610242576100358161027d565b6100416020830161027d565b9261004e6040840161027d565b60608401519093906001600160401b0381116102425782610070918301610291565b60808201519092906001600160401b038111610242576100909201610291565b906001805561009e81610515565b610120526100ab826106b0565b6101405260208151910120908160e0526020815191012080610100524660a0526040519060208201927f8b73c3c69bb8fe3d512ecc4cf759cc79239f7b179b0ffacaa9a75d522b39400f8452604083015260608201524660808201523060a082015260a0815261011c60c082610246565b5190206080523060c0526001600160a01b038116158015610231575b6102235780610149610159926102e6565b506101538161035c565b506103ef565b506001600160a01b038116610213575b50600580546001600160a01b0319166001600160a01b039290921691821790556040515f815267545245415355525960c01b907f82af1bdfcd7429ff4452aa0ad3e30635d41a1dfe7a1125666e13d55ce596a5ef90602090a3604051611d6290816107e9823960805181611ace015260a05181611b8b015260c05181611a9f015260e05181611b1d01526101005181611b4301526101205181610e7201526101405181610e9b0152f35b61021c90610482565b505f610169565b62c6e62160e71b5f5260045ffd5b506001600160a01b03831615610138565b5f80fd5b601f909101601f19168101906001600160401b0382119082101761026957604052565b634e487b7160e01b5f52604160045260245ffd5b51906001600160a01b038216820361024257565b81601f82011215610242578051906001600160401b03821161026957604051926102c5601f8401601f191660200185610246565b8284526020838301011161024257815f9260208093018386015e8301015290565b6001600160a01b0381165f9081525f5160206125cb5f395f51905f52602052604090205460ff16610357576001600160a01b03165f8181525f5160206125cb5f395f51905f5260205260408120805460ff191660011790553391905f51602061254b5f395f51905f528180a4600190565b505f90565b6001600160a01b0381165f9081525f51602061256b5f395f51905f52602052604090205460ff16610357576001600160a01b03165f8181525f51602061256b5f395f51905f5260205260408120805460ff191660011790553391907f0914bb97ca83e85ef385857d9d418f187ff630589e0c9f44db92976d8e4519cb905f51602061254b5f395f51905f529080a4600190565b6001600160a01b0381165f9081525f5160206125ab5f395f51905f52602052604090205460ff16610357576001600160a01b03165f8181525f5160206125ab5f395f51905f5260205260408120805460ff191660011790553391907f3496e2e73c4d42b75d702e60d9e48102720b8691234415963a5a857b86425d07905f51602061254b5f395f51905f529080a4600190565b6001600160a01b0381165f9081525f51602061258b5f395f51905f52602052604090205460ff16610357576001600160a01b03165f8181525f51602061258b5f395f51905f5260205260408120805460ff191660011790553391907fe2f4eaae4a9751e85a3e4a7b9587827a877f29914755229b07a7b2da98285f70905f51602061254b5f395f51905f529080a4600190565b908151602081105f1461058f575090601f81511161054f576020815191015160208210610540571790565b5f198260200360031b1b161790565b604460209160405192839163305a27a960e01b83528160048401528051918291826024860152018484015e5f828201840152601f01601f19168101030190fd5b6001600160401b03811161026957600354600181811c911680156106a6575b602082101461069257601f811161065f575b50602092601f82116001146105fe57928192935f926105f3575b50508160011b915f199060031b1c19161760035560ff90565b015190505f806105da565b601f1982169360035f52805f20915f5b868110610647575083600195961061062f575b505050811b0160035560ff90565b01515f1960f88460031b161c191690555f8080610621565b9192602060018192868501518155019401920161060e565b60035f52601f60205f20910160051c810190601f830160051c015b81811061068757506105c0565b5f815560010161067a565b634e487b7160e01b5f52602260045260245ffd5b90607f16906105ae565b908151602081105f146106db575090601f81511161054f576020815191015160208210610540571790565b6001600160401b03811161026957600454600181811c911680156107de575b602082101461069257601f81116107ab575b50602092601f821160011461074a57928192935f9261073f575b50508160011b915f199060031b1c19161760045560ff90565b015190505f80610726565b601f1982169360045f52805f20915f5b868110610793575083600195961061077b575b505050811b0160045560ff90565b01515f1960f88460031b161c191690555f808061076d565b9192602060018192868501518155019401920161075a565b60045f52601f60205f20910160051c810190601f830160051c015b8181106107d3575061070c565b5f81556001016107c6565b90607f16906106fa56fe608080604052600436101561001c575b50361561001a575f80fd5b005b5f3560e01c90816301ffc9a7146113bf575080631ea7af6f146113a2578063248a9ca3146113705780632f2ff15d1461133357806334aedecd146112f957806336568abe1461129c5780633f4ba83a1461121d5780634284f4bc1461115b5780635c9302c9146111315780635c975abb1461110f57806361d027b3146110e9578063753d7563146110ac5780637b1837de14610fc75780638456cb5914610f6e57806384b0196e14610e5a5780638726e47814610e2257806391d1485414610dd95780639830ff6a14610c9d578063a1ebf35d14610c63578063a217fddf14610c49578063b99152d014610bbf578063bed755d614610b36578063c9bcc97e14610a3f578063cc82aa49146109d1578063d547741f1461098f578063e90a182f14610906578063edf4385d14610274578063f0a3a97c1461023a5763f0f4426014610167575f61000f565b34610236576020600319360112610236576001600160a01b03610188611473565b610190611544565b16801561020e57807fffffffffffffffffffffffff000000000000000000000000000000000000000060055416176005557f54524541535552590000000000000000000000000000000000000000000000007f82af1bdfcd7429ff4452aa0ad3e30635d41a1dfe7a1125666e13d55ce596a5ef60206040515f8152a3005b7f63731080000000000000000000000000000000000000000000000000000000005f5260045ffd5b5f80fd5b34610236575f6003193601126102365760206040517f3496e2e73c4d42b75d702e60d9e48102720b8691234415963a5a857b86425d078152f35b3461023657600319360161010081126102365760e0136102365760e43567ffffffffffffffff811161023657366023820112156102365780600401359067ffffffffffffffff8211610236573660248383010111610236576102d4611752565b6102dc61178b565b6001600160a01b036102ec611501565b165f52600660205260ff60405f205416156108ca5767ffffffffffffffff620151804204168067ffffffffffffffff61032361152d565b16036108885760a4359182421161085857608435938460081c600160ff87161b906001600160a01b03610354611517565b165f52600960205260405f20815f5260205260405f205490828216610818576001600160a01b03610383611517565b165f52600960205260405f20905f526020521760405f20556103a3611517565b916103ac611501565b91604435956103b961152d565b9060c43591821515809303610236576104c2966104b9965f9460209467ffffffffffffffff6042958e6001600160a01b0360405196818b8901997fc50c34e841c0b2ef8f19b80219b19b13f9058f1d8ab54ce2ff54ede883b78d6a8b5216604089015216606087015260808601521660a08401528d60c084015260e0830152610100820152610100815261044f610120826114ae565b51902061045a611a95565b90604051917f1901000000000000000000000000000000000000000000000000000000000000835260028301526022820152209280602461049a826114e5565b966104a860405198896114ae565b828852018387013784010152611bb1565b90929192611beb565b6001600160a01b0381165f9081527f059f08e7d7ba1c82eddc57afae67f80df851baf38a099607a779825038c3ce5b602052604090205460ff16156107e357506001600160a01b03610512611501565b165f52600860205260405f208181548167ffffffffffffffff8216036107cf575b5050805460401c8381018091116107bb576001600160a01b03610554611501565b165f52600760205260405f2054801515806107b2575b61075e5750602460206001600160a01b03610583611501565b16604051928380926370a0823160e01b82523060048301525afa801561071e5785915f91610729575b5010610662576001600160a01b037f3ab847bcf4cab237a43ed2288b40e3673ddb35e98c3ad635c3475aab303975979383829367ffffffffffffffff7fffffffffffffffffffffffffffffffffffffffffffffffff000000000000000080606098549360401b161691161790556106358683610626611501565b1661062f611517565b906117bf565b61063d611517565b96610646611501565b916040519788526020880152604087015216941692a360018055005b60248461066d611501565b60206001600160a01b0361067f611501565b16604051948580926370a0823160e01b82523060048301525afa92831561071e575f936106e3575b506001600160a01b03907f71f1b8fa000000000000000000000000000000000000000000000000000000005f521660045260245260445260645ffd5b9092506020813d602011610716575b816106ff602093836114ae565b810103126102365751916001600160a01b036106a7565b3d91506106f2565b6040513d5f823e3d90fd5b9150506020813d602011610756575b81610745602093836114ae565b8101031261023657849051876105ac565b3d9150610738565b908360849261076b611501565b926001600160a01b03604051947fe7640c78000000000000000000000000000000000000000000000000000000008652166004850152602484015260448301526064820152fd5b5080821161056a565b634e487b7160e01b5f52601160045260245ffd5b5067ffffffffffffffff1681558185610533565b6001600160a01b03907f272848df000000000000000000000000000000000000000000000000000000005f521660045260245ffd5b876001600160a01b03610829611517565b7fc3768a2a000000000000000000000000000000000000000000000000000000005f521660045260245260445ffd5b827f5925d4c8000000000000000000000000000000000000000000000000000000005f524260045260245260445ffd5b67ffffffffffffffff9061089a61152d565b907fbbab2f05000000000000000000000000000000000000000000000000000000005f526004521660245260445ffd5b6001600160a01b036108da611501565b7f015e27a3000000000000000000000000000000000000000000000000000000005f521660045260245ffd5b346102365760406003193601126102365761091f611473565b6001600160a01b0360243591610933611752565b61093b611593565b16610952826001600160a01b0360055416836117bf565b7f5a19430830fcfde0e22c490b588248174677d8f710e3458d69fc424207959a9d60206001600160a01b036005541693604051908152a360018055005b346102365760406003193601126102365761001a6004356109ae61145d565b906109cc6109c7825f525f602052600160405f20015490565b611602565b6116cf565b34610236576020600319360112610236575f7f504153535f5052494345000000000000000000000000000000000000000000007f82af1bdfcd7429ff4452aa0ad3e30635d41a1dfe7a1125666e13d55ce596a5ef6020600435610a32611544565b80600a55604051908152a3005b3461023657604060031936011261023657610a58611473565b60243580151591828203610236576001600160a01b0390610a77611544565b1691825f52600660205260405f209060ff60ff1983541691161790555f14610aec577f544f4b454e5f57484954454c49535400000000000000000000000000000000007f82af1bdfcd7429ff4452aa0ad3e30635d41a1dfe7a1125666e13d55ce596a5ef602060015b60ff60405191168152a3005b7f544f4b454e5f57484954454c49535400000000000000000000000000000000007f82af1bdfcd7429ff4452aa0ad3e30635d41a1dfe7a1125666e13d55ce596a5ef60205f610ae0565b3461023657604060031936011261023657610b4f611473565b7f544f4b454e5f4441494c595f43415000000000000000000000000000000000007f82af1bdfcd7429ff4452aa0ad3e30635d41a1dfe7a1125666e13d55ce596a5ef60206001600160a01b0360243594610ba7611544565b1693845f52600782528060405f2055604051908152a3005b3461023657602060031936011261023657602460206001600160a01b03610be4611473565b16604051928380926370a0823160e01b82523060048301525afa801561071e575f90610c16575b602090604051908152f35b506020813d602011610c41575b81610c30602093836114ae565b810103126102365760209051610c0b565b3d9150610c23565b34610236575f6003193601126102365760206040515f8152f35b34610236575f6003193601126102365760206040517fe2f4eaae4a9751e85a3e4a7b9587827a877f29914755229b07a7b2da98285f708152f35b3461023657602060031936011261023657600435610cb9611752565b610cc1611593565b6001600160a01b03600554168015610db15781158015610da8575b610d80575f80808481945af13d15610d7b573d610cf8816114e5565b90610d0660405192836114ae565b81525f60203d92013e5b15610d53575f7f5a19430830fcfde0e22c490b588248174677d8f710e3458d69fc424207959a9d60206001600160a01b036005541693604051908152a360018055005b7fb248d1f5000000000000000000000000000000000000000000000000000000005f5260045ffd5b610d10565b7ffb350c48000000000000000000000000000000000000000000000000000000005f5260045ffd5b50478211610cdc565b7ffa9e3551000000000000000000000000000000000000000000000000000000005f5260045ffd5b3461023657604060031936011261023657610df261145d565b6004355f525f6020526001600160a01b0360405f2091165f52602052602060ff60405f2054166040519015158152f35b34610236576020600319360112610236576001600160a01b03610e43611473565b165f526007602052602060405f2054604051908152f35b34610236575f60031936011261023657610f12610e967f0000000000000000000000000000000000000000000000000000000000000000611883565b610ebf7f00000000000000000000000000000000000000000000000000000000000000006119c5565b6020610f2060405192610ed283856114ae565b5f84525f3681376040519586957f0f00000000000000000000000000000000000000000000000000000000000000875260e08588015260e0870190611489565b908582036040870152611489565b4660608501523060808501525f60a085015283810360c08501528180845192838152019301915f5b828110610f5757505050500390f35b835185528695509381019392810192600101610f48565b34610236575f60031936011261023657610f86611544565b610f8e61178b565b600160ff1960025416176002557f62e78cea01bee320cd4e420270b5ea74000d11b0c9f74754ebdbfc544b05a2586020604051338152a1005b3461023657604060031936011261023657610fe0611473565b335f9081527f7b492ae5d54acc939302c21c32c04a8f7367d23220de7ef17660a581dfbb516c602052604090205460ff16156110755761001a906001600160a01b03604051917f23b872dd00000000000000000000000000000000000000000000000000000000602084015233602484015230604484015260243560648401526064835261106f6084846114ae565b16611816565b63e2517d3f60e01b5f52336004527f0914bb97ca83e85ef385857d9d418f187ff630589e0c9f44db92976d8e4519cb60245260445ffd5b34610236576020600319360112610236576001600160a01b036110cd611473565b165f526006602052602060ff60405f2054166040519015158152f35b34610236575f6003193601126102365760206001600160a01b0360055416604051908152f35b34610236575f60031936011261023657602060ff600254166040519015158152f35b34610236575f60031936011261023657602067ffffffffffffffff62015180420416604051908152f35b5f6003193601126102365761116e611752565b61117661178b565b600a5480156111f55734106111cd5767ffffffffffffffff620151804204166040519034825260208201527fcbef1d6268404333769bbd17b944e8f86acdca50d5d4c47ca4e157e6796cd48760403392a260018055005b7f0ba38813000000000000000000000000000000000000000000000000000000005f5260045ffd5b7fb1ffeced000000000000000000000000000000000000000000000000000000005f5260045ffd5b34610236575f60031936011261023657611235611544565b60025460ff8116156112745760ff19166002557f5db9ee0a495bf2e6ff9c91a7834c1ba4fdd244a5e8aa4e537bd38aeae4b073aa6020604051338152a1005b7f8dfc202b000000000000000000000000000000000000000000000000000000005f5260045ffd5b34610236576040600319360112610236576112b561145d565b336001600160a01b038216036112d15761001a906004356116cf565b7f6697b232000000000000000000000000000000000000000000000000000000005f5260045ffd5b34610236575f6003193601126102365760206040517f0914bb97ca83e85ef385857d9d418f187ff630589e0c9f44db92976d8e4519cb8152f35b346102365760406003193601126102365761001a60043561135261145d565b9061136b6109c7825f525f602052600160405f20015490565b611642565b3461023657602060031936011261023657602061139a6004355f525f602052600160405f20015490565b604051908152f35b34610236575f600319360112610236576020600a54604051908152f35b3461023657602060031936011261023657600435907fffffffff00000000000000000000000000000000000000000000000000000000821680920361023657817f7965db0b0000000000000000000000000000000000000000000000000000000060209314908115611433575b5015158152f35b7f01ffc9a7000000000000000000000000000000000000000000000000000000009150148361142c565b602435906001600160a01b038216820361023657565b600435906001600160a01b038216820361023657565b90601f19601f602080948051918291828752018686015e5f8582860101520116010190565b90601f601f19910116810190811067ffffffffffffffff8211176114d157604052565b634e487b7160e01b5f52604160045260245ffd5b67ffffffffffffffff81116114d157601f01601f191660200190565b6024356001600160a01b03811681036102365790565b6004356001600160a01b03811681036102365790565b60643567ffffffffffffffff811681036102365790565b335f9081527fad3228b676f7d3cd4284a5443f17f1962b36e491b30a40b2405849e597ba5fb5602052604090205460ff161561157c57565b63e2517d3f60e01b5f52336004525f60245260445ffd5b335f9081527f991c3211066600fc98d95d017c66f2884b1fa3d4cabc2576d000f3cc80931bda602052604090205460ff16156115cb57565b63e2517d3f60e01b5f52336004527f3496e2e73c4d42b75d702e60d9e48102720b8691234415963a5a857b86425d0760245260445ffd5b805f525f60205260405f206001600160a01b0333165f5260205260ff60405f2054161561162c5750565b63e2517d3f60e01b5f523360045260245260445ffd5b805f525f60205260405f206001600160a01b0383165f5260205260ff60405f205416155f146116c957805f525f60205260405f206001600160a01b0383165f5260205260405f20600160ff198254161790556001600160a01b03339216907f2f8788117e7eff1d82e926ec794901d17c78024a50270940304540a733656f0d5f80a4600190565b50505f90565b805f525f60205260405f206001600160a01b0383165f5260205260ff60405f2054165f146116c957805f525f60205260405f206001600160a01b0383165f5260205260405f2060ff1981541690556001600160a01b03339216907ff6391f5c32d9c69d2a47ea670b442974b53935d1edc7fd64eb21e047a839171b5f80a4600190565b600260015414611763576002600155565b7f3ee5aeb5000000000000000000000000000000000000000000000000000000005f5260045ffd5b60ff6002541661179757565b7fd93c0665000000000000000000000000000000000000000000000000000000005f5260045ffd5b611814926001600160a01b03604051937fa9059cbb00000000000000000000000000000000000000000000000000000000602086015216602484015260448301526044825261180f6064836114ae565b611816565b565b905f602091828151910182855af11561071e575f513d61187a57506001600160a01b0381163b155b6118455750565b6001600160a01b03907f5274afe7000000000000000000000000000000000000000000000000000000005f521660045260245ffd5b6001141561183e565b60ff81146118e25760ff811690601f82116118ba57604051916118a76040846114ae565b6020808452838101919036833783525290565b7fb3512b0c000000000000000000000000000000000000000000000000000000005f5260045ffd5b506040515f6003548060011c91600182169182156119bb575b6020841083146119a75783855284929081156119885750600114611929575b611926925003826114ae565b90565b5060035f90815290917fc2575a0e9e593c00f959f8c92f12db2869c3395a3b0502d05e2516446f71f85b5b81831061196c5750509060206119269282010161191a565b6020919350806001915483858801015201910190918392611954565b6020925061192694915060ff191682840152151560051b82010161191a565b634e487b7160e01b5f52602260045260245ffd5b92607f16926118fb565b60ff81146119e95760ff811690601f82116118ba57604051916118a76040846114ae565b506040515f6004548060011c9160018216918215611a8b575b6020841083146119a75783855284929081156119885750600114611a2c57611926925003826114ae565b5060045f90815290917f8a35acfbc15ff81a39ae7d344fd709f28e8600b4aa8c65c6b64bfe7fe36bd19b5b818310611a6f5750509060206119269282010161191a565b6020919350806001915483858801015201910190918392611a57565b92607f1692611a02565b6001600160a01b037f000000000000000000000000000000000000000000000000000000000000000016301480611b88575b15611af0577f000000000000000000000000000000000000000000000000000000000000000090565b60405160208101907f8b73c3c69bb8fe3d512ecc4cf759cc79239f7b179b0ffacaa9a75d522b39400f82527f000000000000000000000000000000000000000000000000000000000000000060408201527f000000000000000000000000000000000000000000000000000000000000000060608201524660808201523060a082015260a08152611b8260c0826114ae565b51902090565b507f00000000000000000000000000000000000000000000000000000000000000004614611ac7565b8151919060418303611be157611bda9250602082015190606060408401519301515f1a90611caa565b9192909190565b50505f9160029190565b6004811015611c965780611bfd575050565b60018103611c2d577ff645eedf000000000000000000000000000000000000000000000000000000005f5260045ffd5b60028103611c6157507ffce698f7000000000000000000000000000000000000000000000000000000005f5260045260245ffd5b600314611c6b5750565b7fd78bce0c000000000000000000000000000000000000000000000000000000005f5260045260245ffd5b634e487b7160e01b5f52602160045260245ffd5b91907f7fffffffffffffffffffffffffffffff5d576e7357a4501ddfe92f46681b20a08411611d21579160209360809260ff5f9560405194855216868401526040830152606082015282805260015afa1561071e575f516001600160a01b03811615611d1757905f905f90565b505f906001905f90565b5050505f916003919056fea26469706673582212205307be9b6a7a08fefea4ae36dd2791fb40a14e8ed26d957ac2df5bf42d940dfe64736f6c634300081e00332f8788117e7eff1d82e926ec794901d17c78024a50270940304540a733656f0d7b492ae5d54acc939302c21c32c04a8f7367d23220de7ef17660a581dfbb516c059f08e7d7ba1c82eddc57afae67f80df851baf38a099607a779825038c3ce5b991c3211066600fc98d95d017c66f2884b1fa3d4cabc2576d000f3cc80931bdaad3228b676f7d3cd4284a5443f17f1962b36e491b30a40b2405849e597ba5fb5","linkReferences":{}},"methodIdentifiers":{"DEFAULT_ADMIN_ROLE()":"a217fddf","FUNDER_ROLE()":"34aedecd","SIGNER_ROLE()":"a1ebf35d","TREASURER_ROLE()":"f0a3a97c","balanceOfToken(address)":"b99152d0","claimWithSig((address,address,uint256,uint64,uint256,uint256,bool),bytes)":"edf4385d","currentDay()":"5c9302c9","eip712Domain()":"84b0196e","fund(address,uint256)":"7b1837de","getRoleAdmin(bytes32)":"248a9ca3","grantRole(bytes32,address)":"2f2ff15d","hasRole(bytes32,address)":"91d14854","passPriceWei()":"1ea7af6f","pause()":"8456cb59","paused()":"5c975abb","payPass()":"4284f4bc","renounceRole(bytes32,address)":"36568abe","revokeRole(bytes32,address)":"d547741f","setPassPriceWei(uint256)":"cc82aa49","setTokenDailyCap(address,uint256)":"bed755d6","setTokenWhitelist(address,bool)":"c9bcc97e","setTreasury(address)":"f0f44260","supportsInterface(bytes4)":"01ffc9a7","sweepETH(uint256)":"9830ff6a","sweepToken(address,uint256)":"e90a182f","tokenDailyCap(address)":"8726e478","tokenWhitelist(address)":"753d7563","treasury()":"61d027b3","unpause()":"3f4ba83a"}}}}}