{"src/faucet/Faucet.sol":{"Faucet":{"abi":[{"type":"constructor","inputs":[],"stateMutability":"nonpayable"},{"type":"function","name":"DEFAULT_ADMIN_ROLE","inputs":[],"outputs":[{"name":"","type":"bytes32","internalType":"bytes32"}],"stateMutability":"view"},{"type":"function","name":"FUNDER_ROLE","inputs":[],"outputs":[{"name":"","type":"bytes32","internalType":"bytes32"}],"stateMutability":"view"},{"type":"function","name":"TREASURER_ROLE","inputs":[],"outputs":[{"name":"","type":"bytes32","internalType":"bytes32"}],"stateMutability":"view"},{"type":"function","name":"acceptOwnership","inputs":[],"outputs":[],"stateMutability":"nonpayable"},{"type":"function","name":"blacklistEnabled","inputs":[],"outputs":[{"name":"","type":"bool","internalType":"bool"}],"stateMutability":"view"},{"type":"function","name":"buyDailyPass","inputs":[],"outputs":[],"stateMutability":"payable"},{"type":"function","name":"claim","inputs":[{"name":"token","type":"address","internalType":"address"},{"name":"to","type":"address","internalType":"address"}],"outputs":[],"stateMutability":"nonpayable"},{"type":"function","name":"cooldownSec","inputs":[],"outputs":[{"name":"","type":"uint256","internalType":"uint256"}],"stateMutability":"view"},{"type":"function","name":"fundVault","inputs":[{"name":"token","type":"address","internalType":"address"},{"name":"amount","type":"uint256","internalType":"uint256"}],"outputs":[],"stateMutability":"nonpayable"},{"type":"function","name":"getRoleAdmin","inputs":[{"name":"role","type":"bytes32","internalType":"bytes32"}],"outputs":[{"name":"","type":"bytes32","internalType":"bytes32"}],"stateMutability":"view"},{"type":"function","name":"grantRole","inputs":[{"name":"role","type":"bytes32","internalType":"bytes32"},{"name":"account","type":"address","internalType":"address"}],"outputs":[],"stateMutability":"nonpayable"},{"type":"function","name":"hasActivePass","inputs":[{"name":"account","type":"address","internalType":"address"}],"outputs":[{"name":"","type":"bool","internalType":"bool"}],"stateMutability":"view"},{"type":"function","name":"hasRole","inputs":[{"name":"role","type":"bytes32","internalType":"bytes32"},{"name":"account","type":"address","internalType":"address"}],"outputs":[{"name":"","type":"bool","internalType":"bool"}],"stateMutability":"view"},{"type":"function","name":"isBlacklisted","inputs":[{"name":"account","type":"address","internalType":"address"}],"outputs":[{"name":"","type":"bool","internalType":"bool"}],"stateMutability":"view"},{"type":"function","name":"nextAvailableAt","inputs":[{"name":"token","type":"address","internalType":"address"},{"name":"user","type":"address","internalType":"address"}],"outputs":[{"name":"","type":"uint256","internalType":"uint256"}],"stateMutability":"view"},{"type":"function","name":"owner","inputs":[],"outputs":[{"name":"","type":"address","internalType":"address"}],"stateMutability":"view"},{"type":"function","name":"paidPassEnabled","inputs":[],"outputs":[{"name":"","type":"bool","internalType":"bool"}],"stateMutability":"view"},{"type":"function","name":"passPriceEth","inputs":[],"outputs":[{"name":"","type":"uint256","internalType":"uint256"}],"stateMutability":"view"},{"type":"function","name":"pause","inputs":[],"outputs":[],"stateMutability":"nonpayable"},{"type":"function","name":"paused","inputs":[],"outputs":[{"name":"","type":"bool","internalType":"bool"}],"stateMutability":"view"},{"type":"function","name":"pendingOwner","inputs":[],"outputs":[{"name":"","type":"address","internalType":"address"}],"stateMutability":"view"},{"type":"function","name":"perClaim","inputs":[{"name":"token","type":"address","internalType":"address"}],"outputs":[{"name":"","type":"uint256","internalType":"uint256"}],"stateMutability":"view"},{"type":"function","name":"renounceOwnership","inputs":[],"outputs":[],"stateMutability":"nonpayable"},{"type":"function","name":"renounceRole","inputs":[{"name":"role","type":"bytes32","internalType":"bytes32"},{"name":"callerConfirmation","type":"address","internalType":"address"}],"outputs":[],"stateMutability":"nonpayable"},{"type":"function","name":"revokeRole","inputs":[{"name":"role","type":"bytes32","internalType":"bytes32"},{"name":"account","type":"address","internalType":"address"}],"outputs":[],"stateMutability":"nonpayable"},{"type":"function","name":"setBlacklistEnabled","inputs":[{"name":"enabled","type":"bool","internalType":"bool"}],"outputs":[],"stateMutability":"nonpayable"},{"type":"function","name":"setBlacklisted","inputs":[{"name":"account","type":"address","internalType":"address"},{"name":"blacklisted_","type":"bool","internalType":"bool"}],"outputs":[],"stateMutability":"nonpayable"},{"type":"function","name":"setCooldown","inputs":[{"name":"newCooldown","type":"uint256","internalType":"uint256"}],"outputs":[],"stateMutability":"nonpayable"},{"type":"function","name":"setDailyCap","inputs":[{"name":"token","type":"address","internalType":"address"},{"name":"cap","type":"uint256","internalType":"uint256"}],"outputs":[],"stateMutability":"nonpayable"},{"type":"function","name":"setPaidPass","inputs":[{"name":"enabled","type":"bool","internalType":"bool"},{"name":"priceWei","type":"uint256","internalType":"uint256"}],"outputs":[],"stateMutability":"nonpayable"},{"type":"function","name":"setPassPriceEth","inputs":[{"name":"newPrice","type":"uint256","internalType":"uint256"}],"outputs":[],"stateMutability":"nonpayable"},{"type":"function","name":"setPerClaim","inputs":[{"name":"token","type":"address","internalType":"address"},{"name":"amount","type":"uint256","internalType":"uint256"}],"outputs":[],"stateMutability":"nonpayable"},{"type":"function","name":"setTreasury","inputs":[{"name":"newTreasury","type":"address","internalType":"address"}],"outputs":[],"stateMutability":"nonpayable"},{"type":"function","name":"supportsInterface","inputs":[{"name":"interfaceId","type":"bytes4","internalType":"bytes4"}],"outputs":[{"name":"","type":"bool","internalType":"bool"}],"stateMutability":"view"},{"type":"function","name":"sweepEth","inputs":[{"name":"amount","type":"uint256","internalType":"uint256"}],"outputs":[],"stateMutability":"nonpayable"},{"type":"function","name":"sweepToken","inputs":[{"name":"token","type":"address","internalType":"address"},{"name":"amount","type":"uint256","internalType":"uint256"}],"outputs":[],"stateMutability":"nonpayable"},{"type":"function","name":"systemRemainingToday","inputs":[{"name":"token","type":"address","internalType":"address"}],"outputs":[{"name":"","type":"uint256","internalType":"uint256"}],"stateMutability":"view"},{"type":"function","name":"transferOwnership","inputs":[{"name":"newOwner","type":"address","internalType":"address"}],"outputs":[],"stateMutability":"nonpayable"},{"type":"function","name":"treasury","inputs":[],"outputs":[{"name":"","type":"address","internalType":"address"}],"stateMutability":"view"},{"type":"function","name":"unpause","inputs":[],"outputs":[],"stateMutability":"nonpayable"},{"type":"event","name":"BlacklistUpdated","inputs":[{"name":"account","type":"address","indexed":true,"internalType":"address"},{"name":"blacklisted","type":"bool","indexed":false,"internalType":"bool"}],"anonymous":false},{"type":"event","name":"Claimed","inputs":[{"name":"token","type":"address","indexed":true,"internalType":"address"},{"name":"user","type":"address","indexed":true,"internalType":"address"},{"name":"amount","type":"uint256","indexed":false,"internalType":"uint256"},{"name":"to","type":"address","indexed":true,"internalType":"address"}],"anonymous":false},{"type":"event","name":"FundsSwept","inputs":[{"name":"asset","type":"address","indexed":true,"internalType":"address"},{"name":"to","type":"address","indexed":true,"internalType":"address"},{"name":"amount","type":"uint256","indexed":false,"internalType":"uint256"}],"anonymous":false},{"type":"event","name":"OwnershipTransferStarted","inputs":[{"name":"previousOwner","type":"address","indexed":true,"internalType":"address"},{"name":"newOwner","type":"address","indexed":true,"internalType":"address"}],"anonymous":false},{"type":"event","name":"OwnershipTransferred","inputs":[{"name":"previousOwner","type":"address","indexed":true,"internalType":"address"},{"name":"newOwner","type":"address","indexed":true,"internalType":"address"}],"anonymous":false},{"type":"event","name":"ParamUpdated","inputs":[{"name":"key","type":"bytes32","indexed":true,"internalType":"bytes32"},{"name":"token","type":"address","indexed":true,"internalType":"address"},{"name":"value","type":"uint256","indexed":false,"internalType":"uint256"}],"anonymous":false},{"type":"event","name":"PassPurchased","inputs":[{"name":"buyer","type":"address","indexed":true,"internalType":"address"},{"name":"amountPaid","type":"uint256","indexed":false,"internalType":"uint256"},{"name":"dayIndex","type":"uint256","indexed":false,"internalType":"uint256"}],"anonymous":false},{"type":"event","name":"Paused","inputs":[{"name":"account","type":"address","indexed":false,"internalType":"address"}],"anonymous":false},{"type":"event","name":"RoleAdminChanged","inputs":[{"name":"role","type":"bytes32","indexed":true,"internalType":"bytes32"},{"name":"previousAdminRole","type":"bytes32","indexed":true,"internalType":"bytes32"},{"name":"newAdminRole","type":"bytes32","indexed":true,"internalType":"bytes32"}],"anonymous":false},{"type":"event","name":"RoleGranted","inputs":[{"name":"role","type":"bytes32","indexed":true,"internalType":"bytes32"},{"name":"account","type":"address","indexed":true,"internalType":"address"},{"name":"sender","type":"address","indexed":true,"internalType":"address"}],"anonymous":false},{"type":"event","name":"RoleRevoked","inputs":[{"name":"role","type":"bytes32","indexed":true,"internalType":"bytes32"},{"name":"account","type":"address","indexed":true,"internalType":"address"},{"name":"sender","type":"address","indexed":true,"internalType":"address"}],"anonymous":false},{"type":"event","name":"Unpaused","inputs":[{"name":"account","type":"address","indexed":false,"internalType":"address"}],"anonymous":false},{"type":"event","name":"VaultFunded","inputs":[{"name":"token","type":"address","indexed":true,"internalType":"address"},{"name":"funder","type":"address","indexed":true,"internalType":"address"},{"name":"amount","type":"uint256","indexed":false,"internalType":"uint256"}],"anonymous":false},{"type":"error","name":"AccessControlBadConfirmation","inputs":[]},{"type":"error","name":"AccessControlUnauthorizedAccount","inputs":[{"name":"account","type":"address","internalType":"address"},{"name":"neededRole","type":"bytes32","internalType":"bytes32"}]},{"type":"error","name":"EnforcedPause","inputs":[]},{"type":"error","name":"ExpectedPause","inputs":[]},{"type":"error","name":"OwnableInvalidOwner","inputs":[{"name":"owner","type":"address","internalType":"address"}]},{"type":"error","name":"OwnableUnauthorizedAccount","inputs":[{"name":"account","type":"address","internalType":"address"}]},{"type":"error","name":"ReentrancyGuardReentrantCall","inputs":[]},{"type":"error","name":"SafeERC20FailedOperation","inputs":[{"name":"token","type":"address","internalType":"address"}]}],"userdoc":{},"devdoc":{},"evm":{"bytecode":{"object":"60808060405234620000b8573315620000a35760018060a01b031980600154166001555f5433828216175f55339060018060a01b03167f8be0079c531659141344cd1fd0a4f28419497f9722a3daafe3b4186f6b6457e05f80a36001600355620151806005556200007033620000bc565b506200007c336200012c565b506200008833620001cd565b503390600d541617600d55604051611f679081620002698239f35b631e4fbdf760e01b81525f6004820152602490fd5b5f80fd5b6001600160a01b03165f8181525f80516020620021f0833981519152602052604090205460ff1662000127575f8181525f80516020620021f083398151915260205260408120805460ff191660011790553391905f80516020620021d08339815191528180a4600190565b505f90565b6001600160a01b03165f8181527fbb158ee2d6e63e8ad1cbf83826571f7b7e372d0659c759aea738d2e47548ac2660205260409020547f0914bb97ca83e85ef385857d9d418f187ff630589e0c9f44db92976d8e4519cb919060ff16620001c757815f52600260205260405f20815f5260205260405f20600160ff1982541617905533915f80516020620021d08339815191525f80a4600190565b50505f90565b6001600160a01b03165f8181527fc0a3be63cc7de3909d43a0d8fc5a3c6357ea79202489f4985e753b0fa052d7c360205260409020547f3496e2e73c4d42b75d702e60d9e48102720b8691234415963a5a857b86425d07919060ff16620001c757815f52600260205260405f20815f5260205260405f20600160ff1982541617905533915f80516020620021d08339815191525f80a460019056fe6080604090808252600480361015610015575f80fd5b5f3560e01c91826301ffc9a714611951575081631201cbd0146118c157816321c0b342146114f7578163248a9ca3146114cd5781632b6d7a661461149f5781632f2ff15d14611477578163328e69ff1461145957816334aedecd1461141f57816336568abe146113c257816338e957691461125c5781633f4ba83a146111de5781634ee0fbb1146111bb5781634fc3f41a146111025781635c975abb146110e157816361d027b3146110ba578163715018a61461104d57816375062d1314610f0457816379ba509714610e5c5781638386ac9e14610e255781638456cb5914610dcc5781638731c2f214610da75781638999c44414610d735781638da5cb5b14610d4d57816391d1485414610d08578163a217fddf14610cee578163a5e0759a14610b64578163bc9214e914610ade578163bffb691d14610abb578163c4ce9f48146109fb578163d01dd6d21461091c578163d547741f146108e0578163da09a33114610857578163e30c397814610830578163e389eba014610603578163e7cb9f2d146105e5578163e90a182f146103a6578163f0a3a97c1461036c578163f0f442601461028c57508063f2fde38b146102175763fe575a87146101d8575f80fd5b34610213576020600319360112610213576020906001600160a01b036101fc6119fd565b165f52600c825260ff815f20541690519015158152f35b5f80fd5b34610213576020600319360112610213576102306119fd565b610238611bf6565b6001600160a01b03809116908173ffffffffffffffffffffffffffffffffffffffff1960015416176001555f54167f38d16b8cac22d99fc7c124b9cd0de2d3fa1faef420bfe791d8c362d765e227005f80a3005b8234610213576020600319360112610213576001600160a01b036102ae6119fd565b6102b6611bf6565b1691821561032a57507f82af1bdfcd7429ff4452aa0ad3e30635d41a1dfe7a1125666e13d55ce596a5ef60207f5452454153555259000000000000000000000000000000000000000000000000928473ffffffffffffffffffffffffffffffffffffffff19600d541617600d55515f8152a3005b6020606492519162461bcd60e51b8352820152600d60248201527f54524541535552595f5a45524f000000000000000000000000000000000000006044820152fd5b8234610213575f60031936011261021357602090517f3496e2e73c4d42b75d702e60d9e48102720b8691234415963a5a857b86425d078152f35b9050346102135781600319360112610213576103c06119fd565b906024356103cc611c39565b6103d4611d12565b6001600160a01b038093169283156105a257600d541693841561055257835f5260209260068452815f20546105115781517f70a0823100000000000000000000000000000000000000000000000000000000815230828201528481602481895afa908115610507575f916104da575b5083159081156104d0575b5061048f5750907f5a19430830fcfde0e22c490b588248174677d8f710e3458d69fc424207959a9d9291610483828787611caa565b51908152a36001600355005b83606492519162461bcd60e51b8352820152601360248201527f53574545505f544f4b454e5f494e56414c4944000000000000000000000000006044820152fd5b905083115f61044e565b90508481813d8311610500575b6104f18183611a85565b8101031261021357515f610443565b503d6104e7565b83513d5f823e3d90fd5b83606492519162461bcd60e51b8352820152600c60248201527f544f4b454e5f41435449564500000000000000000000000000000000000000006044820152fd5b8261059e915191829162461bcd60e51b8352820160609060208152600e60208201527f54524541535552595f554e53455400000000000000000000000000000000000060408201520190565b0390fd5b606483602087519162461bcd60e51b8352820152600a60248201527f544f4b454e5f5a45524f000000000000000000000000000000000000000000006044820152fd5b8234610213575f600319360112610213576020906005549051908152f35b825f60031936011261021357610617611c39565b61061f611c74565b60ff60095416156107ed57600a549081156107a157620151804204335f5260209360088552825f2054600183019081841161078e57811461074c5784341061070a57335f5260088652835f20558334116106aa575b507f95f6a08cb3a2fbe1fae99a2b3b4e974c92f3f86c5abbe085486c5433d9a5ef6b929382519485528401523392a26001600355005b5f8080806106b88834611afb565b335af16106c3611abc565b50610674576064908584519162461bcd60e51b8352820152601060248201527f504153535f524546554e445f4641494c000000000000000000000000000000006044820152fd5b6064828786519162461bcd60e51b8352820152600d60248201527f504153535f554e444552504159000000000000000000000000000000000000006044820152fd5b6064828786519162461bcd60e51b8352820152600b60248201527f504153535f4558495354530000000000000000000000000000000000000000006044820152fd5b601183634e487b7160e01b5f525260245ffd5b8261059e915191829162461bcd60e51b8352820160609060208152600f60208201527f504153535f50524943455f5a45524f000000000000000000000000000000000060408201520190565b906020606492519162461bcd60e51b8352820152600d60248201527f504153535f44495341424c4544000000000000000000000000000000000000006044820152fd5b8234610213575f600319360112610213576020906001600160a01b03600154169051908152f35b82346102135780600319360112610213577f4441494c595f43415000000000000000000000000000000000000000000000007f82af1bdfcd7429ff4452aa0ad3e30635d41a1dfe7a1125666e13d55ce596a5ef60206108b46119fd565b6001600160a01b03602435916108c8611bf6565b1694855f5260068352816001825f20015551908152a3005b823461021357806003193601126102135761091a91356109156001610903611a13565b93835f5260026020525f200154611da4565b611e3f565b005b82346102135780600319360112610213576109356119fd565b6024359081151590818303610213576020937f424c41434b4c4953540000000000000000000000000000000000000000000000937f82af1bdfcd7429ff4452aa0ad3e30635d41a1dfe7a1125666e13d55ce596a5ef937f6a12b3df6cba4203bd7fd06b816789f87de8c594299aed5717ae070fac781bac6001600160a01b0388956109be611bf6565b16978892835f52600c8252855f2060ff1981541660ff83161790558551908152a2156109f25760ff6001915b5191168152a3005b60ff5f916109ea565b823461021357602060031936011261021357813591610a18611bf6565b8215610a70575f7f504153535f5052494345000000000000000000000000000000000000000000007f82af1bdfcd7429ff4452aa0ad3e30635d41a1dfe7a1125666e13d55ce596a5ef6020868681600a5551908152a3005b61059e915191829162461bcd60e51b8352820160609060208152601360208201527f504153535f50524943455f52455155495245440000000000000000000000000060408201520190565b8234610213575f6003193601126102135760209060ff600b541690519015158152f35b82346102135780600319360112610213577f5045525f434c41494d00000000000000000000000000000000000000000000007f82af1bdfcd7429ff4452aa0ad3e30635d41a1dfe7a1125666e13d55ce596a5ef6020610b3b6119fd565b6001600160a01b0360243591610b4f611bf6565b1694855f526006835281815f205551908152a3005b905034610213578160031936011261021357610b7e6119fd565b91602435927f0914bb97ca83e85ef385857d9d418f187ff630589e0c9f44db92976d8e4519cb805f526002602052825f20335f5260205260ff835f20541615610cb857508315610c75576001600160a01b0316918151907f23b872dd0000000000000000000000000000000000000000000000000000000060208301523360248301523060448301528460648301526064825260a082019082821067ffffffffffffffff831117610c6257508252610c369083611eb4565b519182527f9ac8f8f804c58a5ee0a5e1bfed5351fd7e0c1af16216c2c3dc97305a71a7cb8760203393a3005b604190634e487b7160e01b5f525260245ffd5b606483602084519162461bcd60e51b8352820152600e60248201527f494e56414c49445f414d4f554e540000000000000000000000000000000000006044820152fd5b836044918451917fe2517d3f00000000000000000000000000000000000000000000000000000000835233908301526024820152fd5b8234610213575f60031936011261021357602090515f8152f35b8234610213578060031936011261021357602091610d24611a13565b90355f52600283526001600160a01b03825f2091165f52825260ff815f20541690519015158152f35b8234610213575f600319360112610213576020906001600160a01b035f54169051908152f35b8234610213578060031936011261021357602090610da0610d926119fd565b610d9a611a13565b90611b84565b9051908152f35b823461021357602060031936011261021357602090610da0610dc76119fd565b611b08565b905034610213575f600319360112610213577f62e78cea01bee320cd4e420270b5ea74000d11b0c9f74754ebdbfc544b05a25891602091610e0b611bf6565b610e13611c74565b600160ff1982541617905551338152a1005b8234610213576020600319360112610213576020906001600160a01b03610e4a6119fd565b165f5260068252805f20549051908152f35b8234610213575f60031936011261021357600154916001600160a01b03913383851603610ed457505073ffffffffffffffffffffffffffffffffffffffff198092166001555f549133908316175f553391167f8be0079c531659141344cd1fd0a4f28419497f9722a3daafe3b4186f6b6457e05f80a3005b6024925051907f118cdaa70000000000000000000000000000000000000000000000000000000082523390820152fd5b905034610213578160031936011261021357610f1e6119ee565b60243591610f2a611bf6565b8180611045575b610ff9575f7f504153535f50524943450000000000000000000000000000000000000000000060208086888760ff196009541660ff82151516176009558614610fd157857f504149445f504153535f454e41424c454400000000000000000000000000000060015b60ff8451911681527f82af1bdfcd7429ff4452aa0ad3e30635d41a1dfe7a1125666e13d55ce596a5ef968791a381600a5551908152a3005b857f504149445f504153535f454e41424c454400000000000000000000000000000081610f99565b61059e90845191829162461bcd60e51b8352820160609060208152601360208201527f504153535f50524943455f52455155495245440000000000000000000000000060408201520190565b508215610f31565b34610213575f60031936011261021357611065611bf6565b5f6001600160a01b0373ffffffffffffffffffffffffffffffffffffffff19806001541660015582549081168355167f8be0079c531659141344cd1fd0a4f28419497f9722a3daafe3b4186f6b6457e08280a3005b8234610213575f600319360112610213576020906001600160a01b03600d54169051908152f35b8234610213575f6003193601126102135760ff602092541690519015158152f35b90503461021357602060031936011261021357803590611120611bf6565b8115611178575f7f434f4f4c444f574e0000000000000000000000000000000000000000000000007f82af1bdfcd7429ff4452aa0ad3e30635d41a1dfe7a1125666e13d55ce596a5ef602085878160055551908152a3005b606490602084519162461bcd60e51b8352820152601060248201527f494e56414c49445f434f4f4c444f574e000000000000000000000000000000006044820152fd5b8234610213575f6003193601126102135760209060ff6009541690519015158152f35b8234610213575f600319360112610213576111f7611bf6565b815460ff81161561123557907f5db9ee0a495bf2e6ff9c91a7834c1ba4fdd244a5e8aa4e537bd38aeae4b073aa9260ff1960209316905551338152a1005b50517f8dfc202b000000000000000000000000000000000000000000000000000000008152fd5b823461021357602060031936011261021357813590611279611c39565b611281611d12565b6001600160a01b03600d5416928315611377578215801561136e575b61132c575f80808086885af16112b1611abc565b50156112ea575060205f927f5a19430830fcfde0e22c490b588248174677d8f710e3458d69fc424207959a9d9251908152a36001600355005b6020606492519162461bcd60e51b8352820152600e60248201527f53574545505f4554485f4641494c0000000000000000000000000000000000006044820152fd5b6020606492519162461bcd60e51b8352820152601160248201527f53574545505f4554485f494e56414c49440000000000000000000000000000006044820152fd5b5047831161129d565b61059e915191829162461bcd60e51b8352820160609060208152600e60208201527f54524541535552595f554e53455400000000000000000000000000000000000060408201520190565b82346102135780600319360112610213576113db611a13565b90336001600160a01b038316036113f7575061091a9135611e3f565b9050517f6697b232000000000000000000000000000000000000000000000000000000008152fd5b8234610213575f60031936011261021357602090517f0914bb97ca83e85ef385857d9d418f187ff630589e0c9f44db92976d8e4519cb8152f35b8234610213575f60031936011261021357602090600a549051908152f35b823461021357806003193601126102135761091a913561149a6001610903611a13565b611dc6565b8234610213576020600319360112610213576020906114c46114bf6119fd565b611a4a565b90519015158152f35b823461021357602060031936011261021357602091355f52600282526001815f2001549051908152f35b9050346102135781600319360112610213576115116119fd565b611519611a13565b90611522611c39565b61152a611c74565b6001600160a01b0380831691821561187e5760ff600b541680611869575b611826571690815f52602060068152855f2080549586156117e457620151804204918260038201818154036117d6575b505060ff60095416611711575b855f5260078452885f20335f528452885f2091825480151590818092611704575b6116c257816116ac575b5061166a57600282019060016115c78b8454611a29565b9301548015159081611660575b5061161e57505542815560010155945184815261161795339184917f0ffa55c11cec5055a4f567b0ff6e1e0eef2af17baafddd35f31ab4ed1afb754691a4611caa565b6001600355005b606490868c519162461bcd60e51b8352820152601260248201527f4441494c595f4341505f455843454544454400000000000000000000000000006044820152fd5b905083115f6115d4565b606490858b519162461bcd60e51b8352820152600860248201527f434f4f4c444f574e0000000000000000000000000000000000000000000000006044820152fd5b6116ba915060055490611a29565b42105f6115b0565b606483888e519162461bcd60e51b8352820152600c60248201527f434f4f4c444f574e5f44415900000000000000000000000000000000000000006044820152fd5b50856001860154146115a6565b600a541561178a57335f5260088452885f20546001840190818511611777571461158557606482858b519162461bcd60e51b8352820152600d60248201527f504153535f5245515549524544000000000000000000000000000000000000006044820152fd5b601184634e487b7160e01b5f525260245ffd5b61059e828a5191829162461bcd60e51b8352820160609060208152600f60208201527f504153535f50524943455f5a45524f000000000000000000000000000000000060408201520190565b555f6002820155825f611578565b6064908389519162461bcd60e51b8352820152600e60248201527f434c41494d5f44495341424c45440000000000000000000000000000000000006044820152fd5b606485602088519162461bcd60e51b8352820152600b60248201527f424c41434b4c49535445440000000000000000000000000000000000000000006044820152fd5b50335f52600c60205260ff865f205416611548565b606485602088519162461bcd60e51b8352820152600a60248201527f494e56414c49445f544f000000000000000000000000000000000000000000006044820152fd5b8234610213576020600319360112610213577f424c41434b4c4953545f454e41424c45440000000000000000000000000000007f82af1bdfcd7429ff4452aa0ad3e30635d41a1dfe7a1125666e13d55ce596a5ef60205f936119216119ee565b611929611bf6565b60ff19600b541660ff8215151617600b558514611948575160018152a3005b60ff85916109ea565b90346102135760206003193601126102135735907fffffffff00000000000000000000000000000000000000000000000000000000821680920361021357817f7965db0b00000000000000000000000000000000000000000000000000000000602093149081156119c4575b5015158152f35b7f01ffc9a700000000000000000000000000000000000000000000000000000000915014836119bd565b60043590811515820361021357565b600435906001600160a01b038216820361021357565b602435906001600160a01b038216820361021357565b91908201809211611a3657565b634e487b7160e01b5f52601160045260245ffd5b60ff6009541615611a80576001600160a01b03165f52600860205260405f20546201518042049060018201809211611a36571490565b505f90565b90601f601f19910116810190811067ffffffffffffffff821117611aa857604052565b634e487b7160e01b5f52604160045260245ffd5b3d15611af6573d9067ffffffffffffffff8211611aa85760405191611aeb6020601f19601f8401160184611a85565b82523d5f602084013e565b606090565b91908203918211611a3657565b6001600160a01b03165f52600660205260405f206001810154908115611b5e57600381015462015180420403611b5757600201545b80821115611b5157611b4e91611afb565b90565b50505f90565b505f611b3d565b50507fffffffffffffffffffffffffffffffffffffffffffffffffffffffffffffffff90565b6001600160a01b038091165f52600760205260405f2091165f5260205260405f2080548015611bf057611bbc60019160055490611a29565b91015460018101809111611a36576201518090818102918183041490151715611a365780821115611beb575090565b905090565b50504290565b6001600160a01b035f54163303611c0957565b60246040517f118cdaa7000000000000000000000000000000000000000000000000000000008152336004820152fd5b600260035414611c4a576002600355565b60046040517f3ee5aeb5000000000000000000000000000000000000000000000000000000008152fd5b60ff60045416611c8057565b60046040517fd93c0665000000000000000000000000000000000000000000000000000000008152fd5b916001600160a01b03604051927fa9059cbb000000000000000000000000000000000000000000000000000000006020850152166024830152604482015260448152608081019181831067ffffffffffffffff841117611aa857611d1092604052611eb4565b565b335f9081527fc0a3be63cc7de3909d43a0d8fc5a3c6357ea79202489f4985e753b0fa052d7c360205260409020547f3496e2e73c4d42b75d702e60d9e48102720b8691234415963a5a857b86425d079060ff1615611d6d5750565b604490604051907fe2517d3f0000000000000000000000000000000000000000000000000000000082523360048301526024820152fd5b805f52600260205260405f20335f5260205260ff60405f20541615611d6d5750565b90815f5260026020526001600160a01b0360405f20911690815f5260205260ff60405f205416155f14611b5157815f52600260205260405f20815f5260205260405f20600160ff1982541617905533917f2f8788117e7eff1d82e926ec794901d17c78024a50270940304540a733656f0d5f80a4600190565b90815f5260026020526001600160a01b0360405f20911690815f5260205260ff60405f2054165f14611b5157815f52600260205260405f20815f5260205260405f2060ff19815416905533917ff6391f5c32d9c69d2a47ea670b442974b53935d1edc7fd64eb21e047a839171b5f80a4600190565b905f602091828151910182855af115611f26575f513d611f1d57506001600160a01b0381163b155b611ee35750565b6024906001600160a01b03604051917f5274afe7000000000000000000000000000000000000000000000000000000008352166004820152fd5b60011415611edc565b6040513d5f823e3d90fdfea2646970667358221220c6b14d1176ac3ac5704b992482f96f174ec8e269dbe714e17bcbb20658df983964736f6c634300081800332f8788117e7eff1d82e926ec794901d17c78024a50270940304540a733656f0dac33ff75c19e70fe83507db0d683fd3465c996598dc972688b7ace676c89077b","linkReferences":{}},"methodIdentifiers":{"DEFAULT_ADMIN_ROLE()":"a217fddf","FUNDER_ROLE()":"34aedecd","TREASURER_ROLE()":"f0a3a97c","acceptOwnership()":"79ba5097","blacklistEnabled()":"bffb691d","buyDailyPass()":"e389eba0","claim(address,address)":"21c0b342","cooldownSec()":"e7cb9f2d","fundVault(address,uint256)":"a5e0759a","getRoleAdmin(bytes32)":"248a9ca3","grantRole(bytes32,address)":"2f2ff15d","hasActivePass(address)":"2b6d7a66","hasRole(bytes32,address)":"91d14854","isBlacklisted(address)":"fe575a87","nextAvailableAt(address,address)":"8999c444","owner()":"8da5cb5b","paidPassEnabled()":"4ee0fbb1","passPriceEth()":"328e69ff","pause()":"8456cb59","paused()":"5c975abb","pendingOwner()":"e30c3978","perClaim(address)":"8386ac9e","renounceOwnership()":"715018a6","renounceRole(bytes32,address)":"36568abe","revokeRole(bytes32,address)":"d547741f","setBlacklistEnabled(bool)":"1201cbd0","setBlacklisted(address,bool)":"d01dd6d2","setCooldown(uint256)":"4fc3f41a","setDailyCap(address,uint256)":"da09a331","setPaidPass(bool,uint256)":"75062d13","setPassPriceEth(uint256)":"c4ce9f48","setPerClaim(address,uint256)":"bc9214e9","setTreasury(address)":"f0f44260","supportsInterface(bytes4)":"01ffc9a7","sweepEth(uint256)":"38e95769","sweepToken(address,uint256)":"e90a182f","systemRemainingToday(address)":"8731c2f2","transferOwnership(address)":"f2fde38b","treasury()":"61d027b3","unpause()":"3f4ba83a"}}}}}